{
  "contractName": "Dex",
  "abi": [
    {
      "anonymous": false,
      "inputs": [
        {
          "indexed": true,
          "internalType": "address",
          "name": "previousOwner",
          "type": "address"
        },
        {
          "indexed": true,
          "internalType": "address",
          "name": "newOwner",
          "type": "address"
        }
      ],
      "name": "OwnershipTransferred",
      "type": "event"
    },
    {
      "anonymous": false,
      "inputs": [
        {
          "indexed": true,
          "internalType": "address",
          "name": "_to",
          "type": "address"
        },
        {
          "indexed": false,
          "internalType": "bytes32",
          "name": "_ticker",
          "type": "bytes32"
        },
        {
          "indexed": true,
          "internalType": "uint256",
          "name": "_amount",
          "type": "uint256"
        }
      ],
      "name": "withdrawal",
      "type": "event"
    },
    {
      "inputs": [
        {
          "internalType": "bytes32",
          "name": "_ticker",
          "type": "bytes32"
        },
        {
          "internalType": "address",
          "name": "_tokenadress",
          "type": "address"
        }
      ],
      "name": "addToken",
      "outputs": [],
      "stateMutability": "nonpayable",
      "type": "function"
    },
    {
      "inputs": [
        {
          "internalType": "address",
          "name": "",
          "type": "address"
        },
        {
          "internalType": "bytes32",
          "name": "",
          "type": "bytes32"
        }
      ],
      "name": "balances",
      "outputs": [
        {
          "internalType": "uint256",
          "name": "",
          "type": "uint256"
        }
      ],
      "stateMutability": "view",
      "type": "function"
    },
    {
      "inputs": [
        {
          "internalType": "bytes32",
          "name": "_ticker",
          "type": "bytes32"
        },
        {
          "internalType": "uint256",
          "name": "_amount",
          "type": "uint256"
        }
      ],
      "name": "deposit",
      "outputs": [],
      "stateMutability": "nonpayable",
      "type": "function"
    },
    {
      "inputs": [
        {
          "internalType": "bytes32",
          "name": "",
          "type": "bytes32"
        },
        {
          "internalType": "uint256",
          "name": "",
          "type": "uint256"
        },
        {
          "internalType": "uint256",
          "name": "",
          "type": "uint256"
        }
      ],
      "name": "orderbook",
      "outputs": [
        {
          "internalType": "uint256",
          "name": "id",
          "type": "uint256"
        },
        {
          "internalType": "uint256",
          "name": "position",
          "type": "uint256"
        },
        {
          "internalType": "enum Dex.Side",
          "name": "side",
          "type": "uint8"
        },
        {
          "internalType": "bytes32",
          "name": "ticker",
          "type": "bytes32"
        },
        {
          "internalType": "uint256",
          "name": "amount",
          "type": "uint256"
        },
        {
          "internalType": "uint256",
          "name": "price",
          "type": "uint256"
        },
        {
          "internalType": "bool",
          "name": "filled",
          "type": "bool"
        }
      ],
      "stateMutability": "view",
      "type": "function"
    },
    {
      "inputs": [],
      "name": "owner",
      "outputs": [
        {
          "internalType": "address",
          "name": "",
          "type": "address"
        }
      ],
      "stateMutability": "view",
      "type": "function"
    },
    {
      "inputs": [],
      "name": "renounceOwnership",
      "outputs": [],
      "stateMutability": "nonpayable",
      "type": "function"
    },
    {
      "inputs": [
        {
          "internalType": "uint256",
          "name": "",
          "type": "uint256"
        }
      ],
      "name": "tokenList",
      "outputs": [
        {
          "internalType": "bytes32",
          "name": "",
          "type": "bytes32"
        }
      ],
      "stateMutability": "view",
      "type": "function"
    },
    {
      "inputs": [
        {
          "internalType": "bytes32",
          "name": "",
          "type": "bytes32"
        }
      ],
      "name": "tokenMapping",
      "outputs": [
        {
          "internalType": "bytes32",
          "name": "ticker",
          "type": "bytes32"
        },
        {
          "internalType": "address",
          "name": "tokenAddress",
          "type": "address"
        }
      ],
      "stateMutability": "view",
      "type": "function"
    },
    {
      "inputs": [
        {
          "internalType": "address",
          "name": "newOwner",
          "type": "address"
        }
      ],
      "name": "transferOwnership",
      "outputs": [],
      "stateMutability": "nonpayable",
      "type": "function"
    },
    {
      "inputs": [
        {
          "internalType": "bytes32",
          "name": "_ticker",
          "type": "bytes32"
        },
        {
          "internalType": "uint256",
          "name": "_amount",
          "type": "uint256"
        }
      ],
      "name": "withdraw",
      "outputs": [],
      "stateMutability": "nonpayable",
      "type": "function"
    },
    {
      "inputs": [],
      "name": "depositEther",
      "outputs": [],
      "stateMutability": "payable",
      "type": "function"
    },
    {
      "inputs": [
        {
          "internalType": "uint256",
          "name": "_amount",
          "type": "uint256"
        },
        {
          "internalType": "bytes32",
          "name": "_ticker",
          "type": "bytes32"
        },
        {
          "internalType": "enum Dex.Side",
          "name": "side",
          "type": "uint8"
        }
      ],
      "name": "createMarketOrder",
      "outputs": [],
      "stateMutability": "nonpayable",
      "type": "function"
    },
    {
      "inputs": [
        {
          "internalType": "uint256",
          "name": "_amount",
          "type": "uint256"
        },
        {
          "internalType": "uint256",
          "name": "_price",
          "type": "uint256"
        },
        {
          "internalType": "bytes32",
          "name": "_ticker",
          "type": "bytes32"
        },
        {
          "internalType": "enum Dex.Side",
          "name": "side",
          "type": "uint8"
        }
      ],
      "name": "createLimitOrder",
      "outputs": [],
      "stateMutability": "nonpayable",
      "type": "function"
    },
    {
      "inputs": [
        {
          "internalType": "bytes32",
          "name": "_ticker",
          "type": "bytes32"
        },
        {
          "internalType": "enum Dex.Side",
          "name": "side",
          "type": "uint8"
        }
      ],
      "name": "getOrderbook",
      "outputs": [
        {
          "components": [
            {
              "internalType": "uint256",
              "name": "id",
              "type": "uint256"
            },
            {
              "internalType": "uint256",
              "name": "position",
              "type": "uint256"
            },
            {
              "internalType": "enum Dex.Side",
              "name": "side",
              "type": "uint8"
            },
            {
              "internalType": "bytes32",
              "name": "ticker",
              "type": "bytes32"
            },
            {
              "internalType": "uint256",
              "name": "amount",
              "type": "uint256"
            },
            {
              "internalType": "uint256",
              "name": "price",
              "type": "uint256"
            },
            {
              "internalType": "bool",
              "name": "filled",
              "type": "bool"
            }
          ],
          "internalType": "struct Dex.Order[]",
          "name": "",
          "type": "tuple[]"
        }
      ],
      "stateMutability": "view",
      "type": "function"
    }
  ],
  "bytecode": "0x608060405260006004553480156200001657600080fd5b50620000376200002b6200003d60201b60201c565b6200004560201b60201c565b62000109565b600033905090565b60008060009054906101000a900473ffffffffffffffffffffffffffffffffffffffff169050816000806101000a81548173ffffffffffffffffffffffffffffffffffffffff021916908373ffffffffffffffffffffffffffffffffffffffff1602179055508173ffffffffffffffffffffffffffffffffffffffff168173ffffffffffffffffffffffffffffffffffffffff167f8be0079c531659141344cd1fd0a4f28419497f9722a3daafe3b4186f6b6457e060405160405180910390a35050565b61479f80620001196000396000f3fe6080604052600436106100dd5760003560e01c80639776aacf1161007f5780639ead7222116100595780639ead72221461028a578063bb10fb1a146102c7578063f2fde38b146102f0578063f850240214610319576100dd565b80639776aacf1461022e57806398ea5fca146102575780639a5bf0c414610261576100dd565b8063667cb4ba116100bb578063667cb4ba14610171578063715018a6146101af5780637da3048e146101c65780638da5cb5b14610203576100dd565b8063040cf020146100e25780631de26e161461010b5780631f14df6914610134575b600080fd5b3480156100ee57600080fd5b506101096004803603810190610104919061397e565b61035c565b005b34801561011757600080fd5b50610132600480360381019061012d919061397e565b610618565b005b34801561014057600080fd5b5061015b60048036038101906101569190613a1c565b610901565b6040516101689190613a6b565b60405180910390f35b34801561017d57600080fd5b5061019860048036038101906101939190613a86565b610926565b6040516101a6929190613ad1565b60405180910390f35b3480156101bb57600080fd5b506101c461096a565b005b3480156101d257600080fd5b506101ed60048036038101906101e89190613b1f565b61097e565b6040516101fa9190613d4c565b60405180910390f35b34801561020f57600080fd5b50610218610a9c565b6040516102259190613d6e565b60405180910390f35b34801561023a57600080fd5b5061025560048036038101906102509190613d89565b610ac5565b005b61025f610c30565b005b34801561026d57600080fd5b5061028860048036038101906102839190613dc9565b610cb9565b005b34801561029657600080fd5b506102b160048036038101906102ac9190613e30565b611316565b6040516102be9190613e5d565b60405180910390f35b3480156102d357600080fd5b506102ee60048036038101906102e99190613e78565b61133a565b005b3480156102fc57600080fd5b5061031760048036038101906103129190613ecb565b6114d6565b005b34801561032557600080fd5b50610340600480360381019061033b9190613ef8565b611559565b6040516103539796959493929190613f69565b60405180910390f35b81600073ffffffffffffffffffffffffffffffffffffffff166003600083815260200190815260200160002060010160009054906101000a900473ffffffffffffffffffffffffffffffffffffffff1673ffffffffffffffffffffffffffffffffffffffff1603610402576040517f08c379a00000000000000000000000000000000000000000000000000000000081526004016103f990614035565b60405180910390fd5b818381600160003373ffffffffffffffffffffffffffffffffffffffff1673ffffffffffffffffffffffffffffffffffffffff1681526020019081526020016000206000838152602001908152602001600020541015610497576040517f08c379a000000000000000000000000000000000000000000000000000000000815260040161048e906140a1565b60405180910390fd5b6000600160003373ffffffffffffffffffffffffffffffffffffffff1673ffffffffffffffffffffffffffffffffffffffff16815260200190815260200160002060008781526020019081526020016000205490506000806104f983886115df565b91509150811561060e5780600160003373ffffffffffffffffffffffffffffffffffffffff1673ffffffffffffffffffffffffffffffffffffffff16815260200190815260200160002060008a8152602001908152602001600020819055506003600089815260200190815260200160002060010160009054906101000a900473ffffffffffffffffffffffffffffffffffffffff1673ffffffffffffffffffffffffffffffffffffffff1663a9059cbb33896040518363ffffffff1660e01b81526004016105c99291906140c1565b6020604051808303816000875af11580156105e8573d6000803e3d6000fd5b505050506040513d601f19601f8201168201806040525081019061060c9190614116565b505b5050505050505050565b81600073ffffffffffffffffffffffffffffffffffffffff166003600083815260200190815260200160002060010160009054906101000a900473ffffffffffffffffffffffffffffffffffffffff1673ffffffffffffffffffffffffffffffffffffffff16036106be576040517f08c379a00000000000000000000000000000000000000000000000000000000081526004016106b590614035565b60405180910390fd5b60006003600085815260200190815260200160002060010160009054906101000a900473ffffffffffffffffffffffffffffffffffffffff169050828173ffffffffffffffffffffffffffffffffffffffff166370a08231336040518263ffffffff1660e01b81526004016107339190613d6e565b602060405180830381865afa158015610750573d6000803e3d6000fd5b505050506040513d601f19601f820116820180604052508101906107749190614158565b10156107b5576040517f08c379a00000000000000000000000000000000000000000000000000000000081526004016107ac906141d1565b60405180910390fd5b6000600160003373ffffffffffffffffffffffffffffffffffffffff1673ffffffffffffffffffffffffffffffffffffffff16815260200190815260200160002060008681526020019081526020016000205490506000806108178387611607565b9150915081156108f85780600160003373ffffffffffffffffffffffffffffffffffffffff1673ffffffffffffffffffffffffffffffffffffffff1681526020019081526020016000206000898152602001908152602001600020819055508373ffffffffffffffffffffffffffffffffffffffff166323b872dd3330896040518463ffffffff1660e01b81526004016108b3939291906141f1565b6020604051808303816000875af11580156108d2573d6000803e3d6000fd5b505050506040513d601f19601f820116820180604052508101906108f69190614116565b505b50505050505050565b6001602052816000526040600020602052806000526040600020600091509150505481565b60036020528060005260406000206000915090508060000154908060010160009054906101000a900473ffffffffffffffffffffffffffffffffffffffff16905082565b610972611636565b61097c60006116b4565b565b60606005600084815260200190815260200160002060008360018111156109a8576109a7613b9a565b5b8152602001908152602001600020805480602002602001604051908101604052809291908181526020016000905b82821015610a9057838290600052602060002090600702016040518060e001604052908160008201548152602001600182015481526020016002820160009054906101000a900460ff166001811115610a3257610a31613b9a565b5b6001811115610a4457610a43613b9a565b5b81526020016003820154815260200160048201548152602001600582015481526020016006820160009054906101000a900460ff161515151581525050815260200190600101906109d6565b50505050905092915050565b60008060009054906101000a900473ffffffffffffffffffffffffffffffffffffffff16905090565b610acd611636565b8073ffffffffffffffffffffffffffffffffffffffff166003600084815260200190815260200160002060010160009054906101000a900473ffffffffffffffffffffffffffffffffffffffff1673ffffffffffffffffffffffffffffffffffffffff1603610b71576040517f08c379a0000000000000000000000000000000000000000000000000000000008152600401610b6890614274565b60405180910390fd5b60405180604001604052808381526020018273ffffffffffffffffffffffffffffffffffffffff16815250600360008481526020019081526020016000206000820151816000015560208201518160010160006101000a81548173ffffffffffffffffffffffffffffffffffffffff021916908373ffffffffffffffffffffffffffffffffffffffff16021790555090505060028290806001815401808255809150506001900390600052602060002001600090919091909150555050565b34600160003373ffffffffffffffffffffffffffffffffffffffff1673ffffffffffffffffffffffffffffffffffffffff16815260200190815260200160002060007f455448000000000000000000000000000000000000000000000000000000000081526020019081526020016000206000828254610cb091906142c3565b92505081905550565b8181858560006001811115610cd157610cd0613b9a565b5b836001811115610ce457610ce3613b9a565b5b03610db1576000610cf58383611778565b91505080600160003373ffffffffffffffffffffffffffffffffffffffff1673ffffffffffffffffffffffffffffffffffffffff16815260200190815260200160002060007f45544800000000000000000000000000000000000000000000000000000000008152602001908152602001600020541015610dab576040517f08c379a0000000000000000000000000000000000000000000000000000000008152600401610da290614343565b60405180910390fd5b50610e71565b600180811115610dc457610dc3613b9a565b5b836001811115610dd757610dd6613b9a565b5b03610e705781600160003373ffffffffffffffffffffffffffffffffffffffff1673ffffffffffffffffffffffffffffffffffffffff1681526020019081526020016000206000868152602001908152602001600020541015610e6f576040517f08c379a0000000000000000000000000000000000000000000000000000000008152600401610e66906143af565b60405180910390fd5b5b5b6000600560008881526020019081526020016000206000876001811115610e9b57610e9a613b9a565b5b81526020019081526020016000209050600080610eb9898b8a6117cb565b9150915060008115610ef757838381548110610ed857610ed76143cf565b5b90600052602060002090600702019050610ef2818d6118a5565b611169565b836040518060e001604052806004548152602001868054905081526020018b6001811115610f2857610f27613b9a565b5b81526020018c81526020018e81526020018d8152602001600015158152509080600181540180825580915050600190039060005260206000209060070201600090919091909150600082015181600001556020820151816001015560408201518160020160006101000a81548160ff02191690836001811115610fae57610fad613b9a565b5b0217905550606082015181600301556080820151816004015560a0820151816005015560c08201518160060160006101000a81548160ff0219169083151502179055505050836001858054905061100591906143fe565b81548110611016576110156143cf565b5b90600052602060002090600702019050600060405180604001604052803373ffffffffffffffffffffffffffffffffffffffff1681526020018e8152509050600660008360000154815260200190815260200160002060000181908060018154018082558091505060019003906000526020600020906002020160009091909190915060008201518160000160006101000a81548173ffffffffffffffffffffffffffffffffffffffff021916908373ffffffffffffffffffffffffffffffffffffffff1602179055506020820151816001015550506006600060045481526020019081526020016000206000018054905060066000846000015481526020019081526020016000206001016000836000015173ffffffffffffffffffffffffffffffffffffffff1673ffffffffffffffffffffffffffffffffffffffff16815260200190815260200160002081905550505b61117a84600086805490508c611b36565b6004600081548092919061118d90614432565b9190505550600060018111156111a6576111a5613b9a565b5b8160020160009054906101000a900460ff1660018111156111ca576111c9613b9a565b5b0361124f576000806111de8c8e60016117cb565b9150915080156112485761124783600560008f8152602001908152602001600020600060018081111561121457611213613b9a565b5b81526020019081526020016000208481548110611234576112336143cf565b5b9060005260206000209060070201611b7a565b5b5050611308565b60018081111561126257611261613b9a565b5b8160020160009054906101000a900460ff16600181111561128657611285613b9a565b5b036113075760008061129a8c8e60006117cb565b91509150801561130457611303600560008e815260200190815260200160002060008060018111156112cf576112ce613b9a565b5b815260200190815260200160002083815481106112ef576112ee6143cf565b5b906000526020600020906007020184611b7a565b5b50505b5b505050505050505050505050565b6002818154811061132657600080fd5b906000526020600020016000915090505481565b600080600181111561134f5761134e613b9a565b5b82600181111561136257611361613b9a565b5b0361136c57600190505b60018081111561137f5761137e613b9a565b5b82600181111561139257611391613b9a565b5b0361142f5783600160003373ffffffffffffffffffffffffffffffffffffffff1673ffffffffffffffffffffffffffffffffffffffff168152602001908152602001600020600085815260200190815260200160002054101561142a576040517f08c379a0000000000000000000000000000000000000000000000000000000008152600401611421906144c6565b60405180910390fd5b600090505b60008490506000806005600087815260200190815260200160002060008581526020019081526020016000209050600081805490500361147257505050506114d1565b5b6000831180156114865750808054905082105b156114cc576114b783878385815481106114a3576114a26143cf565b5b906000526020600020906007020187611f77565b925081806114c490614432565b925050611473565b505050505b505050565b6114de611636565b600073ffffffffffffffffffffffffffffffffffffffff168173ffffffffffffffffffffffffffffffffffffffff160361154d576040517f08c379a000000000000000000000000000000000000000000000000000000000815260040161154490614558565b60405180910390fd5b611556816116b4565b50565b6005602052826000526040600020602052816000526040600020818154811061158157600080fd5b906000526020600020906007020160009250925050508060000154908060010154908060020160009054906101000a900460ff16908060030154908060040154908060050154908060060160009054906101000a900460ff16905087565b600080838311156115f65760008091509150611600565b6001838503915091505b9250929050565b600080600083850190508481101561162657600080925092505061162f565b60018192509250505b9250929050565b61163e612150565b73ffffffffffffffffffffffffffffffffffffffff1661165c610a9c565b73ffffffffffffffffffffffffffffffffffffffff16146116b2576040517f08c379a00000000000000000000000000000000000000000000000000000000081526004016116a9906145c4565b60405180910390fd5b565b60008060009054906101000a900473ffffffffffffffffffffffffffffffffffffffff169050816000806101000a81548173ffffffffffffffffffffffffffffffffffffffff021916908373ffffffffffffffffffffffffffffffffffffffff1602179055508173ffffffffffffffffffffffffffffffffffffffff168173ffffffffffffffffffffffffffffffffffffffff167f8be0079c531659141344cd1fd0a4f28419497f9722a3daafe3b4186f6b6457e060405160405180910390a35050565b600080600084036117905760016000915091506117c4565b60008385029050838582816117a8576117a76145e4565b5b04146117bb5760008092509250506117c4565b60018192509250505b9250929050565b60008060006005600087815260200190815260200160002060008560018111156117f8576117f7613b9a565b5b8152602001908152602001600020905060005b8180549050811015611893578682828154811061182b5761182a6143cf565b5b90600052602060002090600702016003015414801561186d575085828281548110611859576118586143cf565b5b906000526020600020906007020160050154145b156118805780935060019250505061189d565b808061188b90614432565b91505061180b565b5060008092509250505b935093915050565b6000600660008460000154815260200190815260200160002060010160003373ffffffffffffffffffffffffffffffffffffffff1673ffffffffffffffffffffffffffffffffffffffff16815260200190815260200160002054905060008103611a6457600660008460000154815260200190815260200160002060000160405180604001604052803373ffffffffffffffffffffffffffffffffffffffff16815260200184815250908060018154018082558091505060019003906000526020600020906002020160009091909190915060008201518160000160006101000a81548173ffffffffffffffffffffffffffffffffffffffff021916908373ffffffffffffffffffffffffffffffffffffffff160217905550602082015181600101555050600660008460000154815260200190815260200160002060000180549050600660008560000154815260200190815260200160002060010160003373ffffffffffffffffffffffffffffffffffffffff1673ffffffffffffffffffffffffffffffffffffffff16815260200190815260200160002081905550611a51836004015483611607565b9050836004016000829190505550611b31565b6000811115611b3057611ac06006600085600001548152602001908152602001600020600001600183611a9791906143fe565b81548110611aa857611aa76143cf565b5b90600052602060002090600202016001015483611607565b90506006600085600001548152602001908152602001600020600001600183611ae991906143fe565b81548110611afa57611af96143cf565b5b90600052602060002090600202016001016000829190505550611b21836004015483611607565b90508360040160008291905055505b5b505050565b81831015611b74576000611b4c85858585612158565b9050611b5a85858385611b36565b611b7285600183611b6b91906142c3565b8585611b36565b505b50505050565b6000611b8e83600401548360040154612646565b90506000600660008560000154815260200190815260200160002060000190506000600660008560000154815260200190815260200160002060000190506000805b6000851115611f415783805490508210611bee575050505050611f73565b82805490508110611c03575050505050611f73565b828181548110611c1657611c156143cf565b5b906000526020600020906002020160010154848381548110611c3b57611c3a6143cf565b5b9060005260206000209060020201600101541015611d2d576000848381548110611c6857611c676143cf565b5b9060005260206000209060020201600101549050611cd18860030154868581548110611c9757611c966143cf565b5b9060005260206000209060020201868581548110611cb857611cb76143cf565b5b90600052602060002090600202018b6005015485612662565b611cdb86826115df565b905080965050611cef8860040154826115df565b9050886004016000829190505550611d0b8760040154826115df565b90508760040160008291905055508280611d2490614432565b93505050611f3c565b828181548110611d4057611d3f6143cf565b5b906000526020600020906002020160010154848381548110611d6557611d646143cf565b5b9060005260206000209060020201600101541115611e57576000838381548110611d9257611d916143cf565b5b9060005260206000209060020201600101549050611dfb8860030154868581548110611dc157611dc06143cf565b5b9060005260206000209060020201868581548110611de257611de16143cf565b5b90600052602060002090600202018b6005015485612662565b611e0586826115df565b905080965050611e198860040154826115df565b9050886004016000829190505550611e358760040154826115df565b90508760040160008291905055508180611e4e90614432565b92505050611f3b565b6000848381548110611e6c57611e6b6143cf565b5b9060005260206000209060020201600101549050611ed58860030154868581548110611e9b57611e9a6143cf565b5b9060005260206000209060020201868581548110611ebc57611ebb6143cf565b5b90600052602060002090600202018b6005015485612662565b611edf86826115df565b905080965050611ef38860040154826115df565b9050886004016000829190505550611f0f8760040154826115df565b90508760040160008291905055508280611f2890614432565b9350508180611f3690614432565b925050505b5b611bd0565b6000876004015403611f5757611f5687612b2b565b5b6000866004015403611f6d57611f6c86612b2b565b5b50505050505b5050565b600080600090506001830361206a57600080600660008760000154815260200190815260200160002060000190505b808054905082108015611fb857508783105b15612063576000611ff18760040154838581548110611fda57611fd96143cf565b5b906000526020600020906002020160010154612646565b9050612023828481548110612009576120086143cf565b5b906000526020600020906002020189838a60050154612fb8565b61202d8482611607565b9050809450506120418760040154826115df565b9050876004016000829190505550828061205a90614432565b93505050611fa6565b5050612137565b6000830361213657600080600660008760000154815260200190815260200160002060000190505b8080549050821080156120a457508783105b156121335760006120dd87600401548385815481106120c6576120c56143cf565b5b906000526020600020906002020160010154612646565b905061210f8284815481106120f5576120f46143cf565b5b906000526020600020906002020189838a60050154613487565b6121198482611607565b905080945050828061212a90614432565b93505050612092565b50505b5b61214186826115df565b90508092505050949350505050565b600033905090565b60008085858154811061216e5761216d6143cf565b5b90600052602060002090600702016040518060e001604052908160008201548152602001600182015481526020016002820160009054906101000a900460ff1660018111156121c0576121bf613b9a565b5b60018111156121d2576121d1613b9a565b5b81526020016003820154815260200160048201548152602001600582015481526020016006820160009054906101000a900460ff16151515158152505090506000859050600060018661222591906143fe565b90505b60011561263a576000600181111561224357612242613b9a565b5b85600181111561225657612255613b9a565b5b036122e8575b8260a00151888381548110612274576122736143cf565b5b906000526020600020906007020160050154111561229f57818061229790614432565b92505061225c565b5b8260a001518882815481106122b8576122b76143cf565b5b90600052602060002090600702016005015410156122e35780806122db90614613565b9150506122a0565b6123af565b6001808111156122fb576122fa613b9a565b5b85600181111561230e5761230d613b9a565b5b036123ae575b8260a0015188838154811061232c5761232b6143cf565b5b906000526020600020906007020160050154101561235757818061234f90614432565b925050612314565b5b8260a001518882815481106123705761236f6143cf565b5b906000526020600020906007020160050154111561239b57808061239390614613565b915050612358565b8082106123ad5780935050505061263e565b5b5b8082106123c15780935050505061263e565b60008883815481106123d6576123d56143cf565b5b90600052602060002090600702016040518060e001604052908160008201548152602001600182015481526020016002820160009054906101000a900460ff16600181111561242857612427613b9a565b5b600181111561243a57612439613b9a565b5b81526020016003820154815260200160048201548152602001600582015481526020016006820160009054906101000a900460ff16151515158152505090508289838154811061248d5761248c6143cf565b5b9060005260206000209060070201600101819055508882815481106124b5576124b46143cf565b5b90600052602060002090600702018984815481106124d6576124d56143cf565b5b906000526020600020906007020160008201548160000155600182015481600101556002820160009054906101000a900460ff168160020160006101000a81548160ff021916908360018111156125305761252f613b9a565b5b02179055506003820154816003015560048201548160040155600582015481600501556006820160009054906101000a900460ff168160060160006101000a81548160ff02191690831515021790555090505081816020018181525050808983815481106125a1576125a06143cf565b5b9060005260206000209060070201600082015181600001556020820151816001015560408201518160020160006101000a81548160ff021916908360018111156125ee576125ed613b9a565b5b0217905550606082015181600301556080820151816004015560a0820151816005015560c08201518160060160006101000a81548160ff02191690831515021790555090505050612228565b5050505b949350505050565b6000818311156126585782905061265c565b8190505b92915050565b60008061266f8385611778565b915091508115612b2257612717600160008860000160009054906101000a900473ffffffffffffffffffffffffffffffffffffffff1673ffffffffffffffffffffffffffffffffffffffff1673ffffffffffffffffffffffffffffffffffffffff16815260200190815260200160002060007f4554480000000000000000000000000000000000000000000000000000000000815260200190815260200160002054826115df565b9050600160008860000160009054906101000a900473ffffffffffffffffffffffffffffffffffffffff1673ffffffffffffffffffffffffffffffffffffffff1673ffffffffffffffffffffffffffffffffffffffff16815260200190815260200160002060007f455448000000000000000000000000000000000000000000000000000000000081526020019081526020016000206000829190505550612853600160008760000160009054906101000a900473ffffffffffffffffffffffffffffffffffffffff1673ffffffffffffffffffffffffffffffffffffffff1673ffffffffffffffffffffffffffffffffffffffff16815260200190815260200160002060007f455448000000000000000000000000000000000000000000000000000000000081526020019081526020016000205482611607565b9050600160008760000160009054906101000a900473ffffffffffffffffffffffffffffffffffffffff1673ffffffffffffffffffffffffffffffffffffffff1673ffffffffffffffffffffffffffffffffffffffff16815260200190815260200160002060007f45544800000000000000000000000000000000000000000000000000000000008152602001908152602001600020600082919050555061296f600160008760000160009054906101000a900473ffffffffffffffffffffffffffffffffffffffff1673ffffffffffffffffffffffffffffffffffffffff1673ffffffffffffffffffffffffffffffffffffffff168152602001908152602001600020600089815260200190815260200160002054846115df565b9050600160008760000160009054906101000a900473ffffffffffffffffffffffffffffffffffffffff1673ffffffffffffffffffffffffffffffffffffffff1673ffffffffffffffffffffffffffffffffffffffff16815260200190815260200160002060008981526020019081526020016000206000829190505550612a6b600160008860000160009054906101000a900473ffffffffffffffffffffffffffffffffffffffff1673ffffffffffffffffffffffffffffffffffffffff1673ffffffffffffffffffffffffffffffffffffffff16815260200190815260200160002060008981526020019081526020016000205484611607565b9050600160008860000160009054906101000a900473ffffffffffffffffffffffffffffffffffffffff1673ffffffffffffffffffffffffffffffffffffffff1673ffffffffffffffffffffffffffffffffffffffff16815260200190815260200160002060008981526020019081526020016000206000829190505550612af78660010154846115df565b9050866001016000829190505550612b138560010154846115df565b90508560010160008291905055505b50505050505050565b6000600560008360030154815260200190815260200160002060008360020160009054906101000a900460ff166001811115612b6a57612b69613b9a565b5b81526020019081526020016000208054905011612bbc576040517f08c379a0000000000000000000000000000000000000000000000000000000008152600401612bb390614688565b60405180910390fd5b6000600560008360030154815260200190815260200160002060008360020160009054906101000a900460ff166001811115612bfb57612bfa613b9a565b5b8152602001908152602001600020905060018180549050612c1c91906143fe565b826001015403612ca65780805480612c3757612c366146a8565b5b600190038181906000526020600020906007020160008082016000905560018201600090556002820160006101000a81549060ff02191690556003820160009055600482016000905560058201600090556006820160006101000a81549060ff02191690555050905550612fb5565b600081836001015481548110612cbf57612cbe6143cf565b5b90600052602060002090600702016040518060e001604052908160008201548152602001600182015481526020016002820160009054906101000a900460ff166001811115612d1157612d10613b9a565b5b6001811115612d2357612d22613b9a565b5b81526020016003820154815260200160048201548152602001600582015481526020016006820160009054906101000a900460ff16151515158152505090508160018380549050612d7491906143fe565b81548110612d8557612d846143cf565b5b906000526020600020906007020182846001015481548110612daa57612da96143cf565b5b906000526020600020906007020160008201548160000155600182015481600101556002820160009054906101000a900460ff168160020160006101000a81548160ff02191690836001811115612e0457612e03613b9a565b5b02179055506003820154816003015560048201548160040155600582015481600501556006820160009054906101000a900460ff168160060160006101000a81548160ff021916908315150217905550905050808260018480549050612e6a91906143fe565b81548110612e7b57612e7a6143cf565b5b9060005260206000209060070201600082015181600001556020820151816001015560408201518160020160006101000a81548160ff02191690836001811115612ec857612ec7613b9a565b5b0217905550606082015181600301556080820151816004015560a0820151816005015560c08201518160060160006101000a81548160ff02191690831515021790555090505081805480612f1f57612f1e6146a8565b5b600190038181906000526020600020906007020160008082016000905560018201600090556002820160006101000a81549060ff02191690556003820160009055600482016000905560058201600090556006820160006101000a81549060ff021916905550509055600660008460000154815260200190815260200160002060008082016000612fb091906138a3565b505050505b50565b600080612fc58385611778565b9150915080600160003373ffffffffffffffffffffffffffffffffffffffff1673ffffffffffffffffffffffffffffffffffffffff16815260200190815260200160002060007f4554480000000000000000000000000000000000000000000000000000000000815260200190815260200160002054101561307c576040517f08c379a000000000000000000000000000000000000000000000000000000000815260040161307390614749565b60405180910390fd5b811561347f576130fc600160003373ffffffffffffffffffffffffffffffffffffffff1673ffffffffffffffffffffffffffffffffffffffff16815260200190815260200160002060007f4554480000000000000000000000000000000000000000000000000000000000815260200190815260200160002054826115df565b9050600160003373ffffffffffffffffffffffffffffffffffffffff1673ffffffffffffffffffffffffffffffffffffffff16815260200190815260200160002060007f455448000000000000000000000000000000000000000000000000000000000081526020019081526020016000206000829190505550613214600160008860000160009054906101000a900473ffffffffffffffffffffffffffffffffffffffff1673ffffffffffffffffffffffffffffffffffffffff1673ffffffffffffffffffffffffffffffffffffffff16815260200190815260200160002060007f455448000000000000000000000000000000000000000000000000000000000081526020019081526020016000205482611607565b9050600160008860000160009054906101000a900473ffffffffffffffffffffffffffffffffffffffff1673ffffffffffffffffffffffffffffffffffffffff1673ffffffffffffffffffffffffffffffffffffffff16815260200190815260200160002060007f455448000000000000000000000000000000000000000000000000000000000081526020019081526020016000206000829190505550613330600160008860000160009054906101000a900473ffffffffffffffffffffffffffffffffffffffff1673ffffffffffffffffffffffffffffffffffffffff1673ffffffffffffffffffffffffffffffffffffffff168152602001908152602001600020600087815260200190815260200160002054856115df565b9050600160008860000160009054906101000a900473ffffffffffffffffffffffffffffffffffffffff1673ffffffffffffffffffffffffffffffffffffffff1673ffffffffffffffffffffffffffffffffffffffff16815260200190815260200160002060008781526020019081526020016000206000829190505550613408600160003373ffffffffffffffffffffffffffffffffffffffff1673ffffffffffffffffffffffffffffffffffffffff16815260200190815260200160002060008781526020019081526020016000205485611607565b9050600160003373ffffffffffffffffffffffffffffffffffffffff1673ffffffffffffffffffffffffffffffffffffffff168152602001908152602001600020600087815260200190815260200160002060008291905055506134708660010154856115df565b90508660010160008291905055505b505050505050565b6000806134948484611778565b91509150811561389b5761353c600160008860000160009054906101000a900473ffffffffffffffffffffffffffffffffffffffff1673ffffffffffffffffffffffffffffffffffffffff1673ffffffffffffffffffffffffffffffffffffffff16815260200190815260200160002060007f4554480000000000000000000000000000000000000000000000000000000000815260200190815260200160002054826115df565b9050600160008860000160009054906101000a900473ffffffffffffffffffffffffffffffffffffffff1673ffffffffffffffffffffffffffffffffffffffff1673ffffffffffffffffffffffffffffffffffffffff16815260200190815260200160002060007f455448000000000000000000000000000000000000000000000000000000000081526020019081526020016000206000829190505550613654600160003373ffffffffffffffffffffffffffffffffffffffff1673ffffffffffffffffffffffffffffffffffffffff16815260200190815260200160002060007f455448000000000000000000000000000000000000000000000000000000000081526020019081526020016000205482611607565b9050600160003373ffffffffffffffffffffffffffffffffffffffff1673ffffffffffffffffffffffffffffffffffffffff16815260200190815260200160002060007f455448000000000000000000000000000000000000000000000000000000000081526020019081526020016000206000829190505550613728600160003373ffffffffffffffffffffffffffffffffffffffff1673ffffffffffffffffffffffffffffffffffffffff168152602001908152602001600020600087815260200190815260200160002054856115df565b9050600160003373ffffffffffffffffffffffffffffffffffffffff1673ffffffffffffffffffffffffffffffffffffffff16815260200190815260200160002060008781526020019081526020016000206000829190505550613800600160008860000160009054906101000a900473ffffffffffffffffffffffffffffffffffffffff1673ffffffffffffffffffffffffffffffffffffffff1673ffffffffffffffffffffffffffffffffffffffff16815260200190815260200160002060008781526020019081526020016000205485611607565b9050600160008860000160009054906101000a900473ffffffffffffffffffffffffffffffffffffffff1673ffffffffffffffffffffffffffffffffffffffff1673ffffffffffffffffffffffffffffffffffffffff1681526020019081526020016000206000878152602001908152602001600020600082919050555061388c8660010154856115df565b90508660010160008291905055505b505050505050565b50805460008255600202906000526020600020908101906138c491906138c7565b50565b5b8082111561390957600080820160006101000a81549073ffffffffffffffffffffffffffffffffffffffff02191690556001820160009055506002016138c8565b5090565b600080fd5b6000819050919050565b61392581613912565b811461393057600080fd5b50565b6000813590506139428161391c565b92915050565b6000819050919050565b61395b81613948565b811461396657600080fd5b50565b60008135905061397881613952565b92915050565b600080604083850312156139955761399461390d565b5b60006139a385828601613933565b92505060206139b485828601613969565b9150509250929050565b600073ffffffffffffffffffffffffffffffffffffffff82169050919050565b60006139e9826139be565b9050919050565b6139f9816139de565b8114613a0457600080fd5b50565b600081359050613a16816139f0565b92915050565b60008060408385031215613a3357613a3261390d565b5b6000613a4185828601613a07565b9250506020613a5285828601613933565b9150509250929050565b613a6581613948565b82525050565b6000602082019050613a806000830184613a5c565b92915050565b600060208284031215613a9c57613a9b61390d565b5b6000613aaa84828501613933565b91505092915050565b613abc81613912565b82525050565b613acb816139de565b82525050565b6000604082019050613ae66000830185613ab3565b613af36020830184613ac2565b9392505050565b60028110613b0757600080fd5b50565b600081359050613b1981613afa565b92915050565b60008060408385031215613b3657613b3561390d565b5b6000613b4485828601613933565b9250506020613b5585828601613b0a565b9150509250929050565b600081519050919050565b600082825260208201905092915050565b6000819050602082019050919050565b613b9481613948565b82525050565b7f4e487b7100000000000000000000000000000000000000000000000000000000600052602160045260246000fd5b60028110613bda57613bd9613b9a565b5b50565b6000819050613beb82613bc9565b919050565b6000613bfb82613bdd565b9050919050565b613c0b81613bf0565b82525050565b613c1a81613912565b82525050565b60008115159050919050565b613c3581613c20565b82525050565b60e082016000820151613c516000850182613b8b565b506020820151613c646020850182613b8b565b506040820151613c776040850182613c02565b506060820151613c8a6060850182613c11565b506080820151613c9d6080850182613b8b565b5060a0820151613cb060a0850182613b8b565b5060c0820151613cc360c0850182613c2c565b50505050565b6000613cd58383613c3b565b60e08301905092915050565b6000602082019050919050565b6000613cf982613b5f565b613d038185613b6a565b9350613d0e83613b7b565b8060005b83811015613d3f578151613d268882613cc9565b9750613d3183613ce1565b925050600181019050613d12565b5085935050505092915050565b60006020820190508181036000830152613d668184613cee565b905092915050565b6000602082019050613d836000830184613ac2565b92915050565b60008060408385031215613da057613d9f61390d565b5b6000613dae85828601613933565b9250506020613dbf85828601613a07565b9150509250929050565b60008060008060808587031215613de357613de261390d565b5b6000613df187828801613969565b9450506020613e0287828801613969565b9350506040613e1387828801613933565b9250506060613e2487828801613b0a565b91505092959194509250565b600060208284031215613e4657613e4561390d565b5b6000613e5484828501613969565b91505092915050565b6000602082019050613e726000830184613ab3565b92915050565b600080600060608486031215613e9157613e9061390d565b5b6000613e9f86828701613969565b9350506020613eb086828701613933565b9250506040613ec186828701613b0a565b9150509250925092565b600060208284031215613ee157613ee061390d565b5b6000613eef84828501613a07565b91505092915050565b600080600060608486031215613f1157613f1061390d565b5b6000613f1f86828701613933565b9350506020613f3086828701613969565b9250506040613f4186828701613969565b9150509250925092565b613f5481613bf0565b82525050565b613f6381613c20565b82525050565b600060e082019050613f7e600083018a613a5c565b613f8b6020830189613a5c565b613f986040830188613f4b565b613fa56060830187613ab3565b613fb26080830186613a5c565b613fbf60a0830185613a5c565b613fcc60c0830184613f5a565b98975050505050505050565b600082825260208201905092915050565b7f546f6b656e20646f6573206e6f74206578697374000000000000000000000000600082015250565b600061401f601483613fd8565b915061402a82613fe9565b602082019050919050565b6000602082019050818103600083015261404e81614012565b9050919050565b7f42616c616e6365206e6f742073756666696369656e7400000000000000000000600082015250565b600061408b601683613fd8565b915061409682614055565b602082019050919050565b600060208201905081810360008301526140ba8161407e565b9050919050565b60006040820190506140d66000830185613ac2565b6140e36020830184613a5c565b9392505050565b6140f381613c20565b81146140fe57600080fd5b50565b600081519050614110816140ea565b92915050565b60006020828403121561412c5761412b61390d565b5b600061413a84828501614101565b91505092915050565b60008151905061415281613952565b92915050565b60006020828403121561416e5761416d61390d565b5b600061417c84828501614143565b91505092915050565b7f6e6f20656e6f75676820746f6b656e0000000000000000000000000000000000600082015250565b60006141bb600f83613fd8565b91506141c682614185565b602082019050919050565b600060208201905081810360008301526141ea816141ae565b9050919050565b60006060820190506142066000830186613ac2565b6142136020830185613ac2565b6142206040830184613a5c565b949350505050565b7f546f6b656e20616c726561647920657869737473000000000000000000000000600082015250565b600061425e601483613fd8565b915061426982614228565b602082019050919050565b6000602082019050818103600083015261428d81614251565b9050919050565b7f4e487b7100000000000000000000000000000000000000000000000000000000600052601160045260246000fd5b60006142ce82613948565b91506142d983613948565b92508282019050808211156142f1576142f0614294565b5b92915050565b7f62616c616e6365206e6f2073756666696369656e740000000000000000000000600082015250565b600061432d601583613fd8565b9150614338826142f7565b602082019050919050565b6000602082019050818103600083015261435c81614320565b9050919050565b7f6e6f20456e6f75676820746f6b656e7300000000000000000000000000000000600082015250565b6000614399601083613fd8565b91506143a482614363565b602082019050919050565b600060208201905081810360008301526143c88161438c565b9050919050565b7f4e487b7100000000000000000000000000000000000000000000000000000000600052603260045260246000fd5b600061440982613948565b915061441483613948565b925082820390508181111561442c5761442b614294565b5b92915050565b600061443d82613948565b91507fffffffffffffffffffffffffffffffffffffffffffffffffffffffffffffffff820361446f5761446e614294565b5b600182019050919050565b7f546f6b656e2062616c616e6365206e6f742073756666696369656e7400000000600082015250565b60006144b0601c83613fd8565b91506144bb8261447a565b602082019050919050565b600060208201905081810360008301526144df816144a3565b9050919050565b7f4f776e61626c653a206e6577206f776e657220697320746865207a65726f206160008201527f6464726573730000000000000000000000000000000000000000000000000000602082015250565b6000614542602683613fd8565b915061454d826144e6565b604082019050919050565b6000602082019050818103600083015261457181614535565b9050919050565b7f4f776e61626c653a2063616c6c6572206973206e6f7420746865206f776e6572600082015250565b60006145ae602083613fd8565b91506145b982614578565b602082019050919050565b600060208201905081810360008301526145dd816145a1565b9050919050565b7f4e487b7100000000000000000000000000000000000000000000000000000000600052601260045260246000fd5b600061461e82613948565b91506000820361463157614630614294565b5b600182039050919050565b7f206f72646572626f6f6b206e6f7420656d707479000000000000000000000000600082015250565b6000614672601483613fd8565b915061467d8261463c565b602082019050919050565b600060208201905081810360008301526146a181614665565b9050919050565b7f4e487b7100000000000000000000000000000000000000000000000000000000600052603160045260246000fd5b7f4554482062616c616e6365206e6f742073756666696369656e7420666f72207460008201527f68697320427579204d61726b6574204f72646572200000000000000000000000602082015250565b6000614733603583613fd8565b915061473e826146d7565b604082019050919050565b6000602082019050818103600083015261476281614726565b905091905056fea2646970667358221220cd7f848be490c31f363bd831c549b69d439372d0a9bd1accbc94c6203dccc3e664736f6c63430008110033",
  "immutableReferences": {},
  "source": "pragma solidity ^0.8.0;\r\n\r\nimport \"./Wallet.sol\";\r\n\r\ncontract Dex is Wallet {\r\n    // Enum that describe wheter the order is a SELL or BUY order\r\n    enum Side {\r\n        BUY,\r\n        SELL\r\n    }\r\n\r\n     struct Trader {\r\n        address account ;\r\n        uint256 share;\r\n    }\r\n\r\n    /**\r\n     *  Order Struct used to describe an order\r\n     *\r\n     */\r\n    struct Order {\r\n        uint id;\r\n        uint position;\r\n        Side side;\r\n        bytes32 ticker;\r\n        uint256 amount;\r\n        uint256 price; \r\n        bool filled;\r\n    }\r\n\r\n    /**\r\n    * used to track the share a trader have in each order\r\n    *\r\n    *\r\n    **/\r\n    struct Ordermap{\r\n        Trader[] traders;\r\n        mapping(address => uint256) indexes;\r\n    }\r\n    // used to initialize the order ID\r\n    uint256 orderID = 0;\r\n\r\n    /**\r\n     * used to fetch orders from the order book\r\n     * need the ticker and the side of the order\r\n     */\r\n    mapping(bytes32 => mapping(uint => Order[])) public orderbook;\r\n    // map an order to the involved traders\r\n    mapping(uint => Ordermap) orderTotradersmapping;\r\n    /**\r\n    * used to  synchronize amount on buy side based on the price\r\n    *\r\n    */\r\n    modifier checkbalances(bytes32 _ticker,Side side, uint256 _amount, uint256 _price){\r\n           if (side == Side.BUY) {\r\n            (, uint256 price) = SafeMath.tryMul(_amount, _price);\r\n            require(\r\n                balances[msg.sender][bytes32(\"ETH\")] >= price,\r\n                \"balance no sufficient\"\r\n            );\r\n           \r\n        } else if (side == Side.SELL) {\r\n            require(\r\n                balances[msg.sender][_ticker] >= _amount,\r\n                \"no Enough tokens\"\r\n            );\r\n         \r\n        }\r\n        _;\r\n    }\r\n    /**\r\n     * used to set the user Ether balance\r\n     * is a public payable function\r\n     */\r\n    function depositEther() public payable {\r\n        balances[msg.sender][bytes32(\"ETH\")] += msg.value;\r\n    }\r\n     \r\n\r\n    function createMarketOrder(uint256 _amount, bytes32 _ticker, Side side) public {\r\n        uint otherside = 0;\r\n        if (side == Side.BUY) {\r\n            otherside = 1;\r\n        }\r\n       if (side == Side.SELL) {\r\n            require(balances[msg.sender][_ticker] >= _amount, \"Token balance not sufficient\");\r\n            otherside = 0;\r\n        }\r\n        uint256 r_amount = _amount;\r\n        uint256 counter = 0;\r\n        Order[] storage orders = orderbook[_ticker][otherside];\r\n        if(orders.length==0){\r\n            return ;\r\n        }\r\n        while (r_amount > 0 && counter < orders.length) {\r\n            r_amount = _marketOrderTrade(r_amount, _ticker,orders[counter],otherside);\r\n            counter++;\r\n        }\r\n    }\r\n\r\n    function _marketOrderTrade( uint256 _amount, bytes32 _ticker, Order storage order,uint _otherside) private returns (uint256 remaining) {\r\n        uint256 traded = 0;\r\n        // if side is buy i.e otherside == 1 ; msg.sender  want to buy _amount token from order.traders \r\n        // if side is sell i.e otherside == 0; msg.sender want to sell _amount token to order.traders\r\n        if (_otherside == 1) {\r\n            uint i=0;\r\n            //get the list of the buyers\r\n            Trader[] storage buyers = orderTotradersmapping[order.id].traders;\r\n            while(i <buyers.length && traded<_amount){\r\n                uint256 tradable = getTradable(order.amount,buyers[i].share);\r\n                _buy(buyers[i],_ticker,tradable, order.price);\r\n                (,traded) = SafeMath.tryAdd(traded,tradable);\r\n                (,order.amount) = SafeMath.trySub(order.amount,tradable);\r\n                i++;\r\n            }\r\n        }else if(_otherside == 0){\r\n            uint j=0;\r\n            //get the list of sellers \r\n            Trader[] storage sellers = orderTotradersmapping[order.id].traders;\r\n            while(j <sellers.length && traded<_amount){\r\n                uint256 tradable = getTradable(order.amount,sellers[j].share);\r\n                _sell(sellers[j],_ticker,tradable, order.price);\r\n                (,traded) = SafeMath.tryAdd(traded,tradable);\r\n                j++;\r\n            }\r\n        }\r\n        (,remaining) = SafeMath.trySub(_amount,traded);\r\n        return remaining;\r\n    }\r\n\r\n   \r\n    function _buy(Trader storage _from, bytes32 _ticker, uint256 _amount,uint256 price) private {\r\n         // Estimate the price in ETH for the trade for each order on the sell side\r\n        (bool success, uint256 due) = SafeMath.tryMul(price, _amount);\r\n        // require the buy must have enough ETH to proceed to the trade\r\n        require(balances[msg.sender][bytes32(\"ETH\")] >= due,\"ETH balance not sufficient for this Buy Market Order \");\r\n         \r\n        if (success) {\r\n            // decrease the ETH balance of the buyer\r\n            (, balances[msg.sender][bytes32(\"ETH\")]) = SafeMath.trySub(balances[msg.sender][bytes32(\"ETH\")], due);\r\n            // increase the ETH balance of the trader on the SELL side\r\n            (, balances[_from.account][bytes32(\"ETH\")]) = SafeMath.tryAdd(balances[_from.account][bytes32(\"ETH\")], due);\r\n            // decrease the Token balance of the trader on the SELL side\r\n            (, balances[_from.account][_ticker]) = SafeMath.trySub(balances[_from.account][_ticker], _amount);\r\n            // transfer the token to Buyer\r\n            (, balances[msg.sender][_ticker]) = SafeMath.tryAdd(balances[msg.sender][_ticker], _amount);\r\n            // adjust trader share \r\n            (,_from.share) = SafeMath.trySub(_from.share, _amount);\r\n        }  \r\n    }\r\n\r\n    function _sell(Trader storage _to, bytes32 _ticker, uint256 _amount,uint256 price) private  {\r\n        // get the estimate eth due  by the trader on the buy side for each order to process\r\n        (bool success, uint256 due) = SafeMath.tryMul(_amount, price);\r\n        if (success) {\r\n            // decrease  ETH balance of the  trader on the buy side\r\n            (, balances[_to.account][bytes32(\"ETH\")]) = SafeMath.trySub(balances[_to.account][bytes32(\"ETH\")], due);\r\n             // Increase seller ETH balance\r\n            (, balances[msg.sender][bytes32(\"ETH\")]) = SafeMath.tryAdd(balances[msg.sender][bytes32(\"ETH\")],due);\r\n            //decrease seller token balance\r\n            (, balances[msg.sender][_ticker]) = SafeMath.trySub(balances[msg.sender][_ticker], _amount);\r\n            //transfer token to  the trader on the buy side\r\n            (, balances[_to.account][_ticker]) = SafeMath.tryAdd(balances[_to.account][_ticker],_amount);\r\n            (,_to.share) = SafeMath.trySub(_to.share, _amount);\r\n        }\r\n    }\r\n\r\n    function _trade(bytes32 ticker,Trader storage buyer, Trader storage seller,uint256 price,uint256 _amount) private {\r\n            (bool success, uint256 due) = SafeMath.tryMul(_amount, price);\r\n            //require(balances[buyer.trader][\"ETH\"]>=due, \"Balance not enough\");\r\n            if(success){\r\n                (,balances[buyer.account][\"ETH\"]) = SafeMath.trySub(balances[buyer.account][\"ETH\"],due);\r\n                (,balances[seller.account][\"ETH\"]) = SafeMath.tryAdd(balances[seller.account][\"ETH\"],due);\r\n                (,balances[seller.account][ticker]) = SafeMath.trySub(balances[seller.account][ticker],_amount);\r\n                (,balances[buyer.account][ticker]) = SafeMath.tryAdd(balances[buyer.account][ticker],_amount);\r\n                (,buyer.share) = SafeMath.trySub(buyer.share, _amount);\r\n                (,seller.share) = SafeMath.trySub(seller.share, _amount);\r\n            }\r\n    }\r\n    /**\r\n     * @param _amount the amount of token\r\n     *\r\n     *\r\n     *\r\n     */\r\n    function createLimitOrder(uint256 _amount, uint256 _price, bytes32 _ticker,Side side) public checkbalances(_ticker,side,_amount,_price){\r\n        Order[] storage orders = orderbook[_ticker][uint(side)];\r\n        (uint position, bool exist)  = _lookfor(_ticker,_price, side);\r\n        Order storage currentOrder;\r\n        if(exist){\r\n                 currentOrder = orders[position];\r\n                 addTraderToOrder(currentOrder, _amount);  \r\n        }else{\r\n\r\n            orders.push( Order({id: orderID, position: orders.length, side: side,ticker: _ticker, amount: _amount, price: _price, filled: false }));\r\n            // store the new added Order\r\n            currentOrder = orders[orders.length-1];\r\n            // create a Trader struct to store informations about the buyer\r\n            Trader memory trader  = Trader(msg.sender, _amount);\r\n            // link the order to the Trader with orderTotradersmapping \r\n            orderTotradersmapping[currentOrder.id].traders.push(trader);\r\n            orderTotradersmapping[currentOrder.id].indexes[trader.account] =   orderTotradersmapping[orderID].traders.length;\r\n        }\r\n            //sort the orderbook\r\n            _quicksort(orders,0, orders.length, side);\r\n            orderID++;\r\n            if(currentOrder.side == Side.BUY){\r\n                (uint index, bool exist) = _lookfor(_ticker, _price,Side.SELL);\r\n                if(exist){\r\n                     _processLimitOrder(currentOrder,orderbook[_ticker][uint(Side.SELL)][index]);\r\n                }\r\n                // proceed the limit orders if a matching is founded\r\n            } else if(currentOrder.side == Side.SELL){\r\n                (uint index, bool exist) = _lookfor(_ticker, _price,Side.BUY);\r\n                if(exist){\r\n                     _processLimitOrder(orderbook[_ticker][uint(Side.BUY)][index],currentOrder);\r\n                }\r\n            }\r\n    }\r\n\r\n    // we use a _quicksort(_tosort, low, high); algorithm to sort orders\r\n    function _quicksort(Order[] storage _tosort, uint low, uint high,Side _side) private {\r\n        if (low < high) {\r\n            uint256 pivot = partition(_tosort, low, high, _side);\r\n            _quicksort(_tosort, low, pivot, _side);\r\n            _quicksort(_tosort, pivot + 1, high, _side);\r\n        }\r\n    }\r\n\r\n     function addTraderToOrder(Order storage current,uint256 _amount) private{\r\n            uint256 trader_index = orderTotradersmapping[current.id].indexes[msg.sender];\r\n              // trader_index == 0 mean the trader does not have any shares in the order\r\n            if(trader_index == 0){\r\n                    // add the buyer to trader list \r\n                orderTotradersmapping[current.id].traders.push(Trader(msg.sender,_amount));\r\n                orderTotradersmapping[current.id].indexes[msg.sender] =  orderTotradersmapping[current.id].traders.length;\r\n                (, current.amount) = SafeMath.tryAdd(current.amount, _amount);\r\n                 }// trader already have a share in the order\r\n                 else if(trader_index >0){\r\n                (,orderTotradersmapping[current.id].traders[trader_index-1].share) = SafeMath.tryAdd(orderTotradersmapping[current.id].traders[trader_index-1].share, _amount); \r\n                (, current.amount) = SafeMath.tryAdd(current.amount, _amount);\r\n          }\r\n     }\r\n    function _lookfor(bytes32 _ticker, uint256 _price,Side side) private view returns(uint index, bool found){\r\n            Order[] storage tolookup = orderbook[_ticker][uint(side)];\r\n            for(uint i=0; i<tolookup.length; i++){\r\n                if((tolookup[i].ticker ==_ticker)&&(tolookup[i].price == _price)){\r\n                    index = i;\r\n                    found = true;\r\n                    return (index, found);\r\n                }\r\n            }\r\n            return (0, false);\r\n    }\r\n\r\n    function _processLimitOrder(Order storage current, Order storage matching) private {\r\n                uint256 tradable = getTradable(current.amount, matching.amount);\r\n                Trader[] storage buyers = orderTotradersmapping[current.id].traders;\r\n                Trader[] storage sellers = orderTotradersmapping[matching.id].traders;\r\n                uint i=0;\r\n                uint j=0;\r\n                while(tradable >0){\r\n                    if(i >= buyers.length){\r\n                        return;\r\n                    }\r\n                    if(j >= sellers.length){\r\n                        return;\r\n                    }\r\n                    if(buyers[i].share < sellers[j].share){\r\n                        uint256 trade_amount = buyers[i].share;\r\n                        _trade(current.ticker, buyers[i],sellers[j],current.price,trade_amount);\r\n                        (, tradable)  = SafeMath.trySub(tradable,trade_amount);\r\n                        (,current.amount) = SafeMath.trySub(current.amount, trade_amount);\r\n                        (,matching.amount) = SafeMath.trySub(matching.amount,trade_amount);\r\n                        i++;\r\n                    }else if(buyers[i].share > sellers[j].share){\r\n                        uint256 trade_amount = sellers[i].share;\r\n                        _trade(current.ticker,buyers[i],sellers[j],current.price,trade_amount);\r\n                        (, tradable)  = SafeMath.trySub(tradable,trade_amount);\r\n                        (,current.amount) =  SafeMath.trySub(current.amount,trade_amount);\r\n                        (,matching.amount) = SafeMath.trySub(matching.amount,trade_amount);\r\n                        j++;\r\n                    }else{\r\n                        uint256 trade_amount = buyers[i].share;\r\n                        _trade(current.ticker, buyers[i],sellers[j],current.price,trade_amount);\r\n                        (, tradable)  = SafeMath.trySub(tradable,trade_amount);\r\n                        (,current.amount) = SafeMath.trySub(current.amount, trade_amount);\r\n                        (,matching.amount) = SafeMath.trySub(matching.amount,trade_amount);\r\n                        i++;\r\n                        j++;\r\n                    }\r\n                }\r\n            if(current.amount == 0){\r\n                    _deleteFromOrderBook(current);\r\n            }\r\n            if(matching.amount == 0){\r\n                    _deleteFromOrderBook(matching);\r\n            }\r\n    }\r\n    // partition functions returns the\r\n    function partition(Order[] storage arr, uint low, uint high,Side _side) private returns (uint256 index) {\r\n        Order memory pivot = arr[low];\r\n        uint i = low;\r\n        uint j = high - 1;\r\n        while (true) {\r\n            //sort descending\r\n            if (_side == Side.BUY) {\r\n                while (arr[i].price > pivot.price) {\r\n                    i++;\r\n                }\r\n\r\n                while (arr[j].price < pivot.price) {\r\n                    j--;\r\n                }\r\n            } else if (_side == Side.SELL) {\r\n                //sort ascending\r\n                while (arr[i].price < pivot.price) {\r\n                    i++;\r\n                }\r\n\r\n                while (arr[j].price > pivot.price) {\r\n                    j--;\r\n                }\r\n                if (i >= j) {\r\n                    return j;\r\n                }\r\n            }\r\n            if (i >= j) {\r\n                return j;\r\n            }\r\n            \r\n            Order memory temp = arr[i];\r\n            arr[j].position = i;\r\n            arr[i] = arr[j];\r\n            temp.position = j;\r\n            arr[j] = temp;\r\n        }\r\n    }\r\n\r\n     function getTradable(uint256 first, uint256 second) private  pure returns(uint256){\r\n             if(first>second){\r\n                return first;\r\n             }\r\n             return second;\r\n    }\r\n\r\n\r\n    function _deleteFromOrderBook(Order storage _todelete) private {\r\n        require(orderbook[_todelete.ticker][uint(_todelete.side)].length > 0,\" orderbook not empty\");\r\n        Order[] storage orders = orderbook[_todelete.ticker][uint(_todelete.side)];\r\n        if(_todelete.position == orders.length-1){\r\n            orders.pop();\r\n            return;\r\n        }\r\n        Order memory toremove = orders[_todelete.position];\r\n        orders[_todelete.position] =  orders[orders.length-1];\r\n        orders[orders.length-1] = toremove;\r\n        orders.pop();\r\n        delete orderTotradersmapping[_todelete.id];\r\n    }\r\n\r\n    function getOrderbook(bytes32 _ticker,Side side) public view returns (Order[] memory) {\r\n        return orderbook[_ticker][uint(side)];\r\n    }\r\n}\r\n",
  "sourcePath": "D:\\Solidity\\MyDex\\contracts\\dex.sol",
  "compiler": {
    "name": "solc",
    "version": "0.8.17+commit.8df45f5f.Emscripten.clang"
  },
  "schemaVersion": "3.4.16",
  "updatedAt": "2024-12-10T11:11:18.835Z",
  "devdoc": {
    "kind": "dev",
    "methods": {
      "createLimitOrder(uint256,uint256,bytes32,uint8)": {
        "params": {
          "_amount": "the amount of token"
        }
      },
      "owner()": {
        "details": "Returns the address of the current owner."
      },
      "renounceOwnership()": {
        "details": "Leaves the contract without owner. It will not be possible to call `onlyOwner` functions. Can only be called by the current owner. NOTE: Renouncing ownership will leave the contract without an owner, thereby disabling any functionality that is only available to the owner."
      },
      "transferOwnership(address)": {
        "details": "Transfers ownership of the contract to a new account (`newOwner`). Can only be called by the current owner."
      }
    },
    "version": 1
  },
  "userdoc": {
    "kind": "user",
    "methods": {
      "deposit(bytes32,uint256)": {
        "notice": "deposit  _amount of Token named by _ticker into the DEX make call of the tranferfrom function of Token contract requirements Dex needs to receive approval from User in Token Contract"
      },
      "depositEther()": {
        "notice": "used to set the user Ether balance is a public payable function"
      },
      "orderbook(bytes32,uint256,uint256)": {
        "notice": "used to fetch orders from the order book need the ticker and the side of the order"
      },
      "withdraw(bytes32,uint256)": {
        "notice": "withdraw _amount from this wallet to msg.sender balances into ERC20 Token contract requirements balance of msg.sender must be greater than or equal to _amount make call of transfer function in ERC20 token contract to transfer from this wallet address to msg.sender address"
      }
    },
    "version": 1
  }
}