{
  "contractName": "Wallet",
  "abi": [
    {
      "anonymous": false,
      "inputs": [
        {
          "indexed": true,
          "internalType": "address",
          "name": "previousOwner",
          "type": "address"
        },
        {
          "indexed": true,
          "internalType": "address",
          "name": "newOwner",
          "type": "address"
        }
      ],
      "name": "OwnershipTransferred",
      "type": "event"
    },
    {
      "anonymous": false,
      "inputs": [
        {
          "indexed": true,
          "internalType": "address",
          "name": "_to",
          "type": "address"
        },
        {
          "indexed": false,
          "internalType": "bytes32",
          "name": "_ticker",
          "type": "bytes32"
        },
        {
          "indexed": true,
          "internalType": "uint256",
          "name": "_amount",
          "type": "uint256"
        }
      ],
      "name": "withdrawal",
      "type": "event"
    },
    {
      "inputs": [
        {
          "internalType": "address",
          "name": "",
          "type": "address"
        },
        {
          "internalType": "bytes32",
          "name": "",
          "type": "bytes32"
        }
      ],
      "name": "balances",
      "outputs": [
        {
          "internalType": "uint256",
          "name": "",
          "type": "uint256"
        }
      ],
      "stateMutability": "view",
      "type": "function"
    },
    {
      "inputs": [],
      "name": "owner",
      "outputs": [
        {
          "internalType": "address",
          "name": "",
          "type": "address"
        }
      ],
      "stateMutability": "view",
      "type": "function"
    },
    {
      "inputs": [],
      "name": "renounceOwnership",
      "outputs": [],
      "stateMutability": "nonpayable",
      "type": "function"
    },
    {
      "inputs": [
        {
          "internalType": "uint256",
          "name": "",
          "type": "uint256"
        }
      ],
      "name": "tokenList",
      "outputs": [
        {
          "internalType": "bytes32",
          "name": "",
          "type": "bytes32"
        }
      ],
      "stateMutability": "view",
      "type": "function"
    },
    {
      "inputs": [
        {
          "internalType": "bytes32",
          "name": "",
          "type": "bytes32"
        }
      ],
      "name": "tokenMapping",
      "outputs": [
        {
          "internalType": "bytes32",
          "name": "ticker",
          "type": "bytes32"
        },
        {
          "internalType": "address",
          "name": "tokenAddress",
          "type": "address"
        }
      ],
      "stateMutability": "view",
      "type": "function"
    },
    {
      "inputs": [
        {
          "internalType": "address",
          "name": "newOwner",
          "type": "address"
        }
      ],
      "name": "transferOwnership",
      "outputs": [],
      "stateMutability": "nonpayable",
      "type": "function"
    },
    {
      "inputs": [
        {
          "internalType": "bytes32",
          "name": "_ticker",
          "type": "bytes32"
        },
        {
          "internalType": "address",
          "name": "_tokenadress",
          "type": "address"
        }
      ],
      "name": "addToken",
      "outputs": [],
      "stateMutability": "nonpayable",
      "type": "function"
    },
    {
      "inputs": [
        {
          "internalType": "bytes32",
          "name": "_ticker",
          "type": "bytes32"
        },
        {
          "internalType": "uint256",
          "name": "_amount",
          "type": "uint256"
        }
      ],
      "name": "deposit",
      "outputs": [],
      "stateMutability": "nonpayable",
      "type": "function"
    },
    {
      "inputs": [
        {
          "internalType": "bytes32",
          "name": "_ticker",
          "type": "bytes32"
        },
        {
          "internalType": "uint256",
          "name": "_amount",
          "type": "uint256"
        }
      ],
      "name": "withdraw",
      "outputs": [],
      "stateMutability": "nonpayable",
      "type": "function"
    }
  ],
  "bytecode": "0x608060405234801561001057600080fd5b5061002d61002261003260201b60201c565b61003a60201b60201c565b6100fe565b600033905090565b60008060009054906101000a900473ffffffffffffffffffffffffffffffffffffffff169050816000806101000a81548173ffffffffffffffffffffffffffffffffffffffff021916908373ffffffffffffffffffffffffffffffffffffffff1602179055508173ffffffffffffffffffffffffffffffffffffffff168173ffffffffffffffffffffffffffffffffffffffff167f8be0079c531659141344cd1fd0a4f28419497f9722a3daafe3b4186f6b6457e060405160405180910390a35050565b6112788061010d6000396000f3fe608060405234801561001057600080fd5b50600436106100935760003560e01c8063715018a611610066578063715018a6146101315780638da5cb5b1461013b5780639776aacf146101595780639ead722214610175578063f2fde38b146101a557610093565b8063040cf020146100985780631de26e16146100b45780631f14df69146100d0578063667cb4ba14610100575b600080fd5b6100b260048036038101906100ad9190610c30565b6101c1565b005b6100ce60048036038101906100c99190610c30565b61047d565b005b6100ea60048036038101906100e59190610cce565b610766565b6040516100f79190610d1d565b60405180910390f35b61011a60048036038101906101159190610d38565b61078b565b604051610128929190610d83565b60405180910390f35b6101396107cf565b005b6101436107e3565b6040516101509190610dac565b60405180910390f35b610173600480360381019061016e9190610dc7565b61080c565b005b61018f600480360381019061018a9190610e07565b610977565b60405161019c9190610e34565b60405180910390f35b6101bf60048036038101906101ba9190610e4f565b61099b565b005b81600073ffffffffffffffffffffffffffffffffffffffff166003600083815260200190815260200160002060010160009054906101000a900473ffffffffffffffffffffffffffffffffffffffff1673ffffffffffffffffffffffffffffffffffffffff1603610267576040517f08c379a000000000000000000000000000000000000000000000000000000000815260040161025e90610ed9565b60405180910390fd5b818381600160003373ffffffffffffffffffffffffffffffffffffffff1673ffffffffffffffffffffffffffffffffffffffff16815260200190815260200160002060008381526020019081526020016000205410156102fc576040517f08c379a00000000000000000000000000000000000000000000000000000000081526004016102f390610f45565b60405180910390fd5b6000600160003373ffffffffffffffffffffffffffffffffffffffff1673ffffffffffffffffffffffffffffffffffffffff168152602001908152602001600020600087815260200190815260200160002054905060008061035e8388610a1e565b9150915081156104735780600160003373ffffffffffffffffffffffffffffffffffffffff1673ffffffffffffffffffffffffffffffffffffffff16815260200190815260200160002060008a8152602001908152602001600020819055506003600089815260200190815260200160002060010160009054906101000a900473ffffffffffffffffffffffffffffffffffffffff1673ffffffffffffffffffffffffffffffffffffffff1663a9059cbb33896040518363ffffffff1660e01b815260040161042e929190610f65565b6020604051808303816000875af115801561044d573d6000803e3d6000fd5b505050506040513d601f19601f820116820180604052508101906104719190610fc6565b505b5050505050505050565b81600073ffffffffffffffffffffffffffffffffffffffff166003600083815260200190815260200160002060010160009054906101000a900473ffffffffffffffffffffffffffffffffffffffff1673ffffffffffffffffffffffffffffffffffffffff1603610523576040517f08c379a000000000000000000000000000000000000000000000000000000000815260040161051a90610ed9565b60405180910390fd5b60006003600085815260200190815260200160002060010160009054906101000a900473ffffffffffffffffffffffffffffffffffffffff169050828173ffffffffffffffffffffffffffffffffffffffff166370a08231336040518263ffffffff1660e01b81526004016105989190610dac565b602060405180830381865afa1580156105b5573d6000803e3d6000fd5b505050506040513d601f19601f820116820180604052508101906105d99190611008565b101561061a576040517f08c379a000000000000000000000000000000000000000000000000000000000815260040161061190611081565b60405180910390fd5b6000600160003373ffffffffffffffffffffffffffffffffffffffff1673ffffffffffffffffffffffffffffffffffffffff168152602001908152602001600020600086815260200190815260200160002054905060008061067c8387610a46565b91509150811561075d5780600160003373ffffffffffffffffffffffffffffffffffffffff1673ffffffffffffffffffffffffffffffffffffffff1681526020019081526020016000206000898152602001908152602001600020819055508373ffffffffffffffffffffffffffffffffffffffff166323b872dd3330896040518463ffffffff1660e01b8152600401610718939291906110a1565b6020604051808303816000875af1158015610737573d6000803e3d6000fd5b505050506040513d601f19601f8201168201806040525081019061075b9190610fc6565b505b50505050505050565b6001602052816000526040600020602052806000526040600020600091509150505481565b60036020528060005260406000206000915090508060000154908060010160009054906101000a900473ffffffffffffffffffffffffffffffffffffffff16905082565b6107d7610a75565b6107e16000610af3565b565b60008060009054906101000a900473ffffffffffffffffffffffffffffffffffffffff16905090565b610814610a75565b8073ffffffffffffffffffffffffffffffffffffffff166003600084815260200190815260200160002060010160009054906101000a900473ffffffffffffffffffffffffffffffffffffffff1673ffffffffffffffffffffffffffffffffffffffff16036108b8576040517f08c379a00000000000000000000000000000000000000000000000000000000081526004016108af90611124565b60405180910390fd5b60405180604001604052808381526020018273ffffffffffffffffffffffffffffffffffffffff16815250600360008481526020019081526020016000206000820151816000015560208201518160010160006101000a81548173ffffffffffffffffffffffffffffffffffffffff021916908373ffffffffffffffffffffffffffffffffffffffff16021790555090505060028290806001815401808255809150506001900390600052602060002001600090919091909150555050565b6002818154811061098757600080fd5b906000526020600020016000915090505481565b6109a3610a75565b600073ffffffffffffffffffffffffffffffffffffffff168173ffffffffffffffffffffffffffffffffffffffff1603610a12576040517f08c379a0000000000000000000000000000000000000000000000000000000008152600401610a09906111b6565b60405180910390fd5b610a1b81610af3565b50565b60008083831115610a355760008091509150610a3f565b6001838503915091505b9250929050565b6000806000838501905084811015610a65576000809250925050610a6e565b60018192509250505b9250929050565b610a7d610bb7565b73ffffffffffffffffffffffffffffffffffffffff16610a9b6107e3565b73ffffffffffffffffffffffffffffffffffffffff1614610af1576040517f08c379a0000000000000000000000000000000000000000000000000000000008152600401610ae890611222565b60405180910390fd5b565b60008060009054906101000a900473ffffffffffffffffffffffffffffffffffffffff169050816000806101000a81548173ffffffffffffffffffffffffffffffffffffffff021916908373ffffffffffffffffffffffffffffffffffffffff1602179055508173ffffffffffffffffffffffffffffffffffffffff168173ffffffffffffffffffffffffffffffffffffffff167f8be0079c531659141344cd1fd0a4f28419497f9722a3daafe3b4186f6b6457e060405160405180910390a35050565b600033905090565b600080fd5b6000819050919050565b610bd781610bc4565b8114610be257600080fd5b50565b600081359050610bf481610bce565b92915050565b6000819050919050565b610c0d81610bfa565b8114610c1857600080fd5b50565b600081359050610c2a81610c04565b92915050565b60008060408385031215610c4757610c46610bbf565b5b6000610c5585828601610be5565b9250506020610c6685828601610c1b565b9150509250929050565b600073ffffffffffffffffffffffffffffffffffffffff82169050919050565b6000610c9b82610c70565b9050919050565b610cab81610c90565b8114610cb657600080fd5b50565b600081359050610cc881610ca2565b92915050565b60008060408385031215610ce557610ce4610bbf565b5b6000610cf385828601610cb9565b9250506020610d0485828601610be5565b9150509250929050565b610d1781610bfa565b82525050565b6000602082019050610d326000830184610d0e565b92915050565b600060208284031215610d4e57610d4d610bbf565b5b6000610d5c84828501610be5565b91505092915050565b610d6e81610bc4565b82525050565b610d7d81610c90565b82525050565b6000604082019050610d986000830185610d65565b610da56020830184610d74565b9392505050565b6000602082019050610dc16000830184610d74565b92915050565b60008060408385031215610dde57610ddd610bbf565b5b6000610dec85828601610be5565b9250506020610dfd85828601610cb9565b9150509250929050565b600060208284031215610e1d57610e1c610bbf565b5b6000610e2b84828501610c1b565b91505092915050565b6000602082019050610e496000830184610d65565b92915050565b600060208284031215610e6557610e64610bbf565b5b6000610e7384828501610cb9565b91505092915050565b600082825260208201905092915050565b7f546f6b656e20646f6573206e6f74206578697374000000000000000000000000600082015250565b6000610ec3601483610e7c565b9150610ece82610e8d565b602082019050919050565b60006020820190508181036000830152610ef281610eb6565b9050919050565b7f42616c616e6365206e6f742073756666696369656e7400000000000000000000600082015250565b6000610f2f601683610e7c565b9150610f3a82610ef9565b602082019050919050565b60006020820190508181036000830152610f5e81610f22565b9050919050565b6000604082019050610f7a6000830185610d74565b610f876020830184610d0e565b9392505050565b60008115159050919050565b610fa381610f8e565b8114610fae57600080fd5b50565b600081519050610fc081610f9a565b92915050565b600060208284031215610fdc57610fdb610bbf565b5b6000610fea84828501610fb1565b91505092915050565b60008151905061100281610c04565b92915050565b60006020828403121561101e5761101d610bbf565b5b600061102c84828501610ff3565b91505092915050565b7f6e6f20656e6f75676820746f6b656e0000000000000000000000000000000000600082015250565b600061106b600f83610e7c565b915061107682611035565b602082019050919050565b6000602082019050818103600083015261109a8161105e565b9050919050565b60006060820190506110b66000830186610d74565b6110c36020830185610d74565b6110d06040830184610d0e565b949350505050565b7f546f6b656e20616c726561647920657869737473000000000000000000000000600082015250565b600061110e601483610e7c565b9150611119826110d8565b602082019050919050565b6000602082019050818103600083015261113d81611101565b9050919050565b7f4f776e61626c653a206e6577206f776e657220697320746865207a65726f206160008201527f6464726573730000000000000000000000000000000000000000000000000000602082015250565b60006111a0602683610e7c565b91506111ab82611144565b604082019050919050565b600060208201905081810360008301526111cf81611193565b9050919050565b7f4f776e61626c653a2063616c6c6572206973206e6f7420746865206f776e6572600082015250565b600061120c602083610e7c565b9150611217826111d6565b602082019050919050565b6000602082019050818103600083015261123b816111ff565b905091905056fea264697066735822122017766e231c8a36343258d38d9ab35a131c1c61c17792c734d89520f883363c8c64736f6c63430008110033",
  "immutableReferences": {},
  "source": "pragma solidity ^0.8.0;\r\n\r\n// import the IERC2O interface\r\nimport \"../node_modules/@openzeppelin/contracts/token/ERC20/IERC20.sol\";\r\n//import safeMath\r\nimport \"../node_modules/@openzeppelin/contracts/utils/math/SafeMath.sol\";\r\n//import Owernable.sol\r\nimport \"../node_modules/@openzeppelin/contracts/access/Ownable.sol\";\r\n\r\ncontract Wallet is Ownable {\r\n    using SafeMath for uint;\r\n    using SafeMath for uint256;\r\n    // define token struct with token name and address\r\n    struct Token {\r\n        bytes32 ticker;\r\n        address tokenAddress;\r\n    }\r\n    /*\r\n    keep balances of user. \r\n    using double mapping to keep track of differnt assets\r\n    */\r\n    mapping(address => mapping(bytes32 => uint256)) public balances;\r\n\r\n    // define a token list to store all supported tokens.\r\n    bytes32[] public tokenList;\r\n\r\n    // define a token mapping to fetch token\r\n    mapping(bytes32 => Token) public tokenMapping;\r\n\r\n    // event is emitted each time a  withdraw happens\r\n    event withdrawal(\r\n        address indexed _to,\r\n        bytes32 _ticker,\r\n        uint256 indexed _amount\r\n    );\r\n\r\n    modifier tokenExist(bytes32 _ticker) {\r\n        //check if token exist\r\n        require(\r\n            tokenMapping[_ticker].tokenAddress != address(0),\r\n            \"Token does not exist\"\r\n        );\r\n        _;\r\n    }\r\n\r\n    modifier hasEnoughBalance(uint256 _amount, bytes32 _ticker) {\r\n        //check if the user have enough balance to witdraw\r\n        require(\r\n            balances[msg.sender][_ticker] >= _amount,\r\n            \"Balance not sufficient\"\r\n        );\r\n        _;\r\n    }\r\n\r\n    function addToken(\r\n        bytes32 _ticker,\r\n        address _tokenadress\r\n    ) external onlyOwner {\r\n        require(\r\n            tokenMapping[_ticker].tokenAddress != _tokenadress,\r\n            \"Token already exists\"\r\n        );\r\n        //define the new token if non existent\r\n        tokenMapping[_ticker] = Token(_ticker, _tokenadress);\r\n        tokenList.push(_ticker);\r\n    }\r\n\r\n    /**\r\n     *\r\n     * deposit  _amount of Token named by _ticker into the DEX\r\n     * make call of the tranferfrom function of Token contract\r\n     * requirements\r\n     * Dex needs to receive approval from User in Token Contract\r\n     */\r\n    function deposit(\r\n        bytes32 _ticker,\r\n        uint256 _amount\r\n    ) external tokenExist(_ticker) {\r\n        IERC20 MTK = IERC20(tokenMapping[_ticker].tokenAddress);\r\n        require(MTK.balanceOf(msg.sender) >= _amount, \"no enough token\");\r\n        uint256 _currentbalance = balances[msg.sender][_ticker];\r\n        (bool success, uint newBalance) = SafeMath.tryAdd(_currentbalance, _amount);\r\n        if (success) {\r\n            balances[msg.sender][_ticker] = newBalance;\r\n            MTK.transferFrom(msg.sender, address(this), _amount);\r\n        }\r\n    }\r\n\r\n    /**\r\n     * withdraw _amount from this wallet to msg.sender balances into ERC20 Token contract\r\n     * requirements\r\n     * balance of msg.sender must be greater than or equal to _amount\r\n     * make call of transfer function in ERC20 token contract to transfer from this wallet address to msg.sender address\r\n     */\r\n\r\n    function withdraw(\r\n        bytes32 _ticker,\r\n        uint256 _amount\r\n    ) external tokenExist(_ticker) hasEnoughBalance(_amount, _ticker) {\r\n        uint256 _actualBalance = balances[msg.sender][_ticker];\r\n        // using Math library to avoid overflow\r\n        (bool sucess, uint256 newBalance) = SafeMath.trySub(\r\n            _actualBalance,\r\n            _amount\r\n        );\r\n\r\n        // if no overflow adjust balances\r\n        if (sucess) {\r\n            balances[msg.sender][_ticker] = newBalance;\r\n            IERC20(tokenMapping[_ticker].tokenAddress).transfer(\r\n                msg.sender,\r\n                _amount\r\n            );\r\n        }\r\n    }\r\n}\r\n",
  "sourcePath": "D:\\Solidity\\MyDex\\contracts\\Wallet.sol",
  "compiler": {
    "name": "solc",
    "version": "0.8.17+commit.8df45f5f.Emscripten.clang"
  },
  "schemaVersion": "3.4.16",
  "updatedAt": "2024-12-10T10:25:14.257Z",
  "devdoc": {
    "kind": "dev",
    "methods": {
      "owner()": {
        "details": "Returns the address of the current owner."
      },
      "renounceOwnership()": {
        "details": "Leaves the contract without owner. It will not be possible to call `onlyOwner` functions. Can only be called by the current owner. NOTE: Renouncing ownership will leave the contract without an owner, thereby disabling any functionality that is only available to the owner."
      },
      "transferOwnership(address)": {
        "details": "Transfers ownership of the contract to a new account (`newOwner`). Can only be called by the current owner."
      }
    },
    "version": 1
  },
  "userdoc": {
    "kind": "user",
    "methods": {
      "deposit(bytes32,uint256)": {
        "notice": "deposit  _amount of Token named by _ticker into the DEX make call of the tranferfrom function of Token contract requirements Dex needs to receive approval from User in Token Contract"
      },
      "withdraw(bytes32,uint256)": {
        "notice": "withdraw _amount from this wallet to msg.sender balances into ERC20 Token contract requirements balance of msg.sender must be greater than or equal to _amount make call of transfer function in ERC20 token contract to transfer from this wallet address to msg.sender address"
      }
    },
    "version": 1
  }
}