{
  "contractName": "Wallet",
  "abi": [
    {
      "anonymous": false,
      "inputs": [
        {
          "indexed": true,
          "internalType": "address",
          "name": "_to",
          "type": "address"
        },
        {
          "indexed": false,
          "internalType": "bytes32",
          "name": "_ticker",
          "type": "bytes32"
        },
        {
          "indexed": true,
          "internalType": "uint256",
          "name": "_amount",
          "type": "uint256"
        }
      ],
      "name": "withdrawal",
      "type": "event"
    },
    {
      "inputs": [
        {
          "internalType": "address",
          "name": "",
          "type": "address"
        },
        {
          "internalType": "bytes32",
          "name": "",
          "type": "bytes32"
        }
      ],
      "name": "balances",
      "outputs": [
        {
          "internalType": "uint256",
          "name": "",
          "type": "uint256"
        }
      ],
      "stateMutability": "view",
      "type": "function"
    },
    {
      "inputs": [
        {
          "internalType": "uint256",
          "name": "",
          "type": "uint256"
        }
      ],
      "name": "tokenList",
      "outputs": [
        {
          "internalType": "bytes32",
          "name": "",
          "type": "bytes32"
        }
      ],
      "stateMutability": "view",
      "type": "function"
    },
    {
      "inputs": [
        {
          "internalType": "address",
          "name": "_tokenadress",
          "type": "address"
        },
        {
          "internalType": "bytes32",
          "name": "_ticker",
          "type": "bytes32"
        }
      ],
      "name": "addToken",
      "outputs": [],
      "stateMutability": "nonpayable",
      "type": "function"
    },
    {
      "inputs": [
        {
          "internalType": "bytes32",
          "name": "_ticker",
          "type": "bytes32"
        },
        {
          "internalType": "uint256",
          "name": "_amount",
          "type": "uint256"
        }
      ],
      "name": "deposit",
      "outputs": [],
      "stateMutability": "nonpayable",
      "type": "function"
    },
    {
      "inputs": [
        {
          "internalType": "bytes32",
          "name": "_ticker",
          "type": "bytes32"
        },
        {
          "internalType": "uint256",
          "name": "_amount",
          "type": "uint256"
        }
      ],
      "name": "withdraw",
      "outputs": [],
      "stateMutability": "nonpayable",
      "type": "function"
    }
  ],
  "bytecode": "0x608060405234801561000f575f80fd5b506109388061001d5f395ff3fe608060405234801561000f575f80fd5b5060043610610055575f3560e01c8063040cf020146100595780631de26e16146100755780631f14df69146100915780639ead7222146100c1578063c0c1eebc146100f1575b5f80fd5b610073600480360381019061006e91906105d3565b61010d565b005b61008f600480360381019061008a91906105d3565b6103a8565b005b6100ab60048036038101906100a6919061066b565b6103ac565b6040516100b891906106b8565b60405180910390f35b6100db60048036038101906100d691906106d1565b6103cb565b6040516100e8919061070b565b60405180910390f35b61010b6004803603810190610106919061066b565b6103eb565b005b5f73ffffffffffffffffffffffffffffffffffffffff1660025f8481526020019081526020015f206001015f9054906101000a900473ffffffffffffffffffffffffffffffffffffffff1673ffffffffffffffffffffffffffffffffffffffff16036101ae576040517f08c379a00000000000000000000000000000000000000000000000000000000081526004016101a59061077e565b60405180910390fd5b805f803373ffffffffffffffffffffffffffffffffffffffff1673ffffffffffffffffffffffffffffffffffffffff1681526020019081526020015f205f8481526020019081526020015f2054101561023c576040517f08c379a0000000000000000000000000000000000000000000000000000000008152600401610233906107e6565b60405180910390fd5b5f805f3373ffffffffffffffffffffffffffffffffffffffff1673ffffffffffffffffffffffffffffffffffffffff1681526020019081526020015f205f8481526020019081526020015f205490505f806102978385610543565b9150915081156103a157805f803373ffffffffffffffffffffffffffffffffffffffff1673ffffffffffffffffffffffffffffffffffffffff1681526020019081526020015f205f8781526020019081526020015f208190555060025f8681526020019081526020015f206001015f9054906101000a900473ffffffffffffffffffffffffffffffffffffffff1673ffffffffffffffffffffffffffffffffffffffff1663a9059cbb33866040518363ffffffff1660e01b815260040161035f929190610813565b6020604051808303815f875af115801561037b573d5f803e3d5ffd5b505050506040513d601f19601f8201168201806040525081019061039f919061086f565b505b5050505050565b5050565b5f602052815f5260405f20602052805f5260405f205f91509150505481565b600181815481106103da575f80fd5b905f5260205f20015f915090505481565b8173ffffffffffffffffffffffffffffffffffffffff1660025f8381526020019081526020015f206001015f9054906101000a900473ffffffffffffffffffffffffffffffffffffffff1673ffffffffffffffffffffffffffffffffffffffff160361048c576040517f08c379a0000000000000000000000000000000000000000000000000000000008152600401610483906108e4565b60405180910390fd5b60405180604001604052808281526020018373ffffffffffffffffffffffffffffffffffffffff1681525060025f8381526020019081526020015f205f820151815f01556020820151816001015f6101000a81548173ffffffffffffffffffffffffffffffffffffffff021916908373ffffffffffffffffffffffffffffffffffffffff160217905550905050600181908060018154018082558091505060019003905f5260205f20015f90919091909150555050565b5f8083831115610558575f8091509150610562565b6001838503915091505b9250929050565b5f80fd5b5f819050919050565b61057f8161056d565b8114610589575f80fd5b50565b5f8135905061059a81610576565b92915050565b5f819050919050565b6105b2816105a0565b81146105bc575f80fd5b50565b5f813590506105cd816105a9565b92915050565b5f80604083850312156105e9576105e8610569565b5b5f6105f68582860161058c565b9250506020610607858286016105bf565b9150509250929050565b5f73ffffffffffffffffffffffffffffffffffffffff82169050919050565b5f61063a82610611565b9050919050565b61064a81610630565b8114610654575f80fd5b50565b5f8135905061066581610641565b92915050565b5f806040838503121561068157610680610569565b5b5f61068e85828601610657565b925050602061069f8582860161058c565b9150509250929050565b6106b2816105a0565b82525050565b5f6020820190506106cb5f8301846106a9565b92915050565b5f602082840312156106e6576106e5610569565b5b5f6106f3848285016105bf565b91505092915050565b6107058161056d565b82525050565b5f60208201905061071e5f8301846106fc565b92915050565b5f82825260208201905092915050565b7f546f6b656e20646f6573206e6f742065786973740000000000000000000000005f82015250565b5f610768601483610724565b915061077382610734565b602082019050919050565b5f6020820190508181035f8301526107958161075c565b9050919050565b7f42616c616e6365206e6f742073756666696369656e74000000000000000000005f82015250565b5f6107d0601683610724565b91506107db8261079c565b602082019050919050565b5f6020820190508181035f8301526107fd816107c4565b9050919050565b61080d81610630565b82525050565b5f6040820190506108265f830185610804565b61083360208301846106a9565b9392505050565b5f8115159050919050565b61084e8161083a565b8114610858575f80fd5b50565b5f8151905061086981610845565b92915050565b5f6020828403121561088457610883610569565b5b5f6108918482850161085b565b91505092915050565b7f546f6b656e20616c7265616479206578697374730000000000000000000000005f82015250565b5f6108ce601483610724565b91506108d98261089a565b602082019050919050565b5f6020820190508181035f8301526108fb816108c2565b905091905056fea264697066735822122047817777745c828c3114f3fc75abe46efbf12ae222e8cb4f410e5a3d99eb75c464736f6c63430008150033",
  "immutableReferences": {},
  "source": "pragma solidity ^0.8.0;\r\n\r\n// import the IERC2O interface\r\nimport \"../node_modules/@openzeppelin/contracts/token/ERC20/IERC20.sol\";\r\n\r\n//import safeMath\r\nimport \"../node_modules/@openzeppelin/contracts/utils/math/Math.sol\";\r\n\r\ncontract Wallet {\r\n    // define token struct with token name and address\r\n    struct Token {\r\n        bytes32 ticker;\r\n        address tokenAddress;\r\n    }\r\n    /*\r\n    keep balances of user. \r\n    using double mapping to keep track of differnt assets\r\n    */\r\n    mapping(address => mapping(bytes32 => uint256)) public balances;\r\n\r\n    // define a token list to store all supported tokens.\r\n    bytes32[] public tokenList;\r\n\r\n    // define a token mapping to fetch token\r\n    mapping(bytes32 => Token) tokenMapping;\r\n\r\n    // event is emitted each time a  withdraw happens\r\n    event withdrawal(\r\n        address indexed _to,\r\n        bytes32 _ticker,\r\n        uint256 indexed _amount\r\n    );\r\n\r\n    function addToken(address _tokenadress, bytes32 _ticker) external {\r\n        require(\r\n            tokenMapping[_ticker].tokenAddress != _tokenadress,\r\n            \"Token already exists\"\r\n        );\r\n        //define the new token if non existent\r\n        tokenMapping[_ticker] = Token(_ticker, _tokenadress);\r\n        tokenList.push(_ticker);\r\n    }\r\n\r\n    function deposit(bytes32 _ticker, uint256 _amount) external {}\r\n\r\n    function withdraw(bytes32 _ticker, uint256 _amount) external {\r\n        //check if token exist\r\n        require(\r\n            tokenMapping[_ticker].tokenAddress != address(0),\r\n            \"Token does not exist\"\r\n        );\r\n        //check if the user have enough balance to witdraw\r\n        require(\r\n            balances[msg.sender][_ticker] >= _amount,\r\n            \"Balance not sufficient\"\r\n        );\r\n\r\n        uint256 _actualBalance = balances[msg.sender][_ticker];\r\n        // using Math library to avoid overflow\r\n        (bool sucess, uint256 newBalance) = Math.trySub(\r\n            _actualBalance,\r\n            _amount\r\n        );\r\n\r\n        // if no overflow adjust balances\r\n        if (sucess) {\r\n            balances[msg.sender][_ticker] = newBalance;\r\n            IERC20(tokenMapping[_ticker].tokenAddress).transfer(\r\n                msg.sender,\r\n                _amount\r\n            );\r\n        }\r\n    }\r\n}\r\n",
  "sourcePath": "D:\\Solidity\\MyDex\\contracts\\Wallet.sol",
  "compiler": {
    "name": "solc",
    "version": "0.8.21+commit.d9974bed.Emscripten.clang"
  },
  "schemaVersion": "3.4.16",
  "updatedAt": "2024-11-11T11:58:18.422Z",
  "devdoc": {
    "kind": "dev",
    "methods": {},
    "version": 1
  },
  "userdoc": {
    "kind": "user",
    "methods": {},
    "version": 1
  }
}