{
  "contractName": "Wallet",
  "abi": [
    {
      "inputs": [
        {
          "internalType": "address",
          "name": "owner",
          "type": "address"
        }
      ],
      "name": "OwnableInvalidOwner",
      "type": "error"
    },
    {
      "inputs": [
        {
          "internalType": "address",
          "name": "account",
          "type": "address"
        }
      ],
      "name": "OwnableUnauthorizedAccount",
      "type": "error"
    },
    {
      "anonymous": false,
      "inputs": [
        {
          "indexed": true,
          "internalType": "address",
          "name": "previousOwner",
          "type": "address"
        },
        {
          "indexed": true,
          "internalType": "address",
          "name": "newOwner",
          "type": "address"
        }
      ],
      "name": "OwnershipTransferred",
      "type": "event"
    },
    {
      "anonymous": false,
      "inputs": [
        {
          "indexed": true,
          "internalType": "address",
          "name": "_to",
          "type": "address"
        },
        {
          "indexed": false,
          "internalType": "bytes32",
          "name": "_ticker",
          "type": "bytes32"
        },
        {
          "indexed": true,
          "internalType": "uint256",
          "name": "_amount",
          "type": "uint256"
        }
      ],
      "name": "withdrawal",
      "type": "event"
    },
    {
      "inputs": [
        {
          "internalType": "address",
          "name": "",
          "type": "address"
        },
        {
          "internalType": "bytes32",
          "name": "",
          "type": "bytes32"
        }
      ],
      "name": "balances",
      "outputs": [
        {
          "internalType": "uint256",
          "name": "",
          "type": "uint256"
        }
      ],
      "stateMutability": "view",
      "type": "function",
      "constant": true
    },
    {
      "inputs": [],
      "name": "owner",
      "outputs": [
        {
          "internalType": "address",
          "name": "",
          "type": "address"
        }
      ],
      "stateMutability": "view",
      "type": "function",
      "constant": true
    },
    {
      "inputs": [],
      "name": "renounceOwnership",
      "outputs": [],
      "stateMutability": "nonpayable",
      "type": "function"
    },
    {
      "inputs": [
        {
          "internalType": "uint256",
          "name": "",
          "type": "uint256"
        }
      ],
      "name": "tokenList",
      "outputs": [
        {
          "internalType": "bytes32",
          "name": "",
          "type": "bytes32"
        }
      ],
      "stateMutability": "view",
      "type": "function",
      "constant": true
    },
    {
      "inputs": [
        {
          "internalType": "bytes32",
          "name": "",
          "type": "bytes32"
        }
      ],
      "name": "tokenMapping",
      "outputs": [
        {
          "internalType": "bytes32",
          "name": "ticker",
          "type": "bytes32"
        },
        {
          "internalType": "address",
          "name": "tokenAddress",
          "type": "address"
        }
      ],
      "stateMutability": "view",
      "type": "function",
      "constant": true
    },
    {
      "inputs": [
        {
          "internalType": "address",
          "name": "newOwner",
          "type": "address"
        }
      ],
      "name": "transferOwnership",
      "outputs": [],
      "stateMutability": "nonpayable",
      "type": "function"
    },
    {
      "inputs": [
        {
          "internalType": "address",
          "name": "_tokenadress",
          "type": "address"
        },
        {
          "internalType": "bytes32",
          "name": "_ticker",
          "type": "bytes32"
        }
      ],
      "name": "addToken",
      "outputs": [],
      "stateMutability": "nonpayable",
      "type": "function"
    },
    {
      "inputs": [
        {
          "internalType": "bytes32",
          "name": "_ticker",
          "type": "bytes32"
        },
        {
          "internalType": "uint256",
          "name": "_amount",
          "type": "uint256"
        }
      ],
      "name": "deposit",
      "outputs": [],
      "stateMutability": "nonpayable",
      "type": "function"
    },
    {
      "inputs": [
        {
          "internalType": "bytes32",
          "name": "_ticker",
          "type": "bytes32"
        },
        {
          "internalType": "uint256",
          "name": "_amount",
          "type": "uint256"
        }
      ],
      "name": "withdraw",
      "outputs": [],
      "stateMutability": "nonpayable",
      "type": "function"
    }
  ],
  "bytecode": "0x608060405234801561000f575f80fd5b50335f73ffffffffffffffffffffffffffffffffffffffff168173ffffffffffffffffffffffffffffffffffffffff1603610081575f6040517f1e4fbdf70000000000000000000000000000000000000000000000000000000081526004016100789190610196565b60405180910390fd5b6100908161009660201b60201c565b506101af565b5f805f9054906101000a900473ffffffffffffffffffffffffffffffffffffffff169050815f806101000a81548173ffffffffffffffffffffffffffffffffffffffff021916908373ffffffffffffffffffffffffffffffffffffffff1602179055508173ffffffffffffffffffffffffffffffffffffffff168173ffffffffffffffffffffffffffffffffffffffff167f8be0079c531659141344cd1fd0a4f28419497f9722a3daafe3b4186f6b6457e060405160405180910390a35050565b5f73ffffffffffffffffffffffffffffffffffffffff82169050919050565b5f61018082610157565b9050919050565b61019081610176565b82525050565b5f6020820190506101a95f830184610187565b92915050565b6110b3806101bc5f395ff3fe608060405234801561000f575f80fd5b5060043610610091575f3560e01c8063715018a611610064578063715018a61461012e5780638da5cb5b146101385780639ead722214610156578063c0c1eebc14610186578063f2fde38b146101a257610091565b8063040cf020146100955780631de26e16146100b15780631f14df69146100cd578063667cb4ba146100fd575b5f80fd5b6100af60048036038101906100aa9190610bdc565b6101be565b005b6100cb60048036038101906100c69190610bdc565b610462565b005b6100e760048036038101906100e29190610c74565b610734565b6040516100f49190610cc1565b60405180910390f35b61011760048036038101906101129190610cda565b610754565b604051610125929190610d23565b60405180910390f35b610136610793565b005b6101406107a6565b60405161014d9190610d4a565b60405180910390f35b610170600480360381019061016b9190610d63565b6107cd565b60405161017d9190610d8e565b60405180910390f35b6101a0600480360381019061019b9190610c74565b6107ed565b005b6101bc60048036038101906101b79190610da7565b61094d565b005b815f73ffffffffffffffffffffffffffffffffffffffff1660035f8381526020019081526020015f206001015f9054906101000a900473ffffffffffffffffffffffffffffffffffffffff1673ffffffffffffffffffffffffffffffffffffffff1603610260576040517f08c379a000000000000000000000000000000000000000000000000000000000815260040161025790610e2c565b60405180910390fd5b81838160015f3373ffffffffffffffffffffffffffffffffffffffff1673ffffffffffffffffffffffffffffffffffffffff1681526020019081526020015f205f8381526020019081526020015f205410156102f1576040517f08c379a00000000000000000000000000000000000000000000000000000000081526004016102e890610e94565b60405180910390fd5b5f60015f3373ffffffffffffffffffffffffffffffffffffffff1673ffffffffffffffffffffffffffffffffffffffff1681526020019081526020015f205f8781526020019081526020015f205490505f8061034d83886109d1565b915091508115610458578060015f3373ffffffffffffffffffffffffffffffffffffffff1673ffffffffffffffffffffffffffffffffffffffff1681526020019081526020015f205f8a81526020019081526020015f208190555060035f8981526020019081526020015f206001015f9054906101000a900473ffffffffffffffffffffffffffffffffffffffff1673ffffffffffffffffffffffffffffffffffffffff1663a9059cbb33896040518363ffffffff1660e01b8152600401610416929190610eb2565b6020604051808303815f875af1158015610432573d5f803e3d5ffd5b505050506040513d601f19601f820116820180604052508101906104569190610f0e565b505b5050505050505050565b815f73ffffffffffffffffffffffffffffffffffffffff1660035f8381526020019081526020015f206001015f9054906101000a900473ffffffffffffffffffffffffffffffffffffffff1673ffffffffffffffffffffffffffffffffffffffff1603610504576040517f08c379a00000000000000000000000000000000000000000000000000000000081526004016104fb90610e2c565b60405180910390fd5b5f60035f8581526020019081526020015f206001015f9054906101000a900473ffffffffffffffffffffffffffffffffffffffff169050828173ffffffffffffffffffffffffffffffffffffffff166370a08231336040518263ffffffff1660e01b81526004016105759190610d4a565b602060405180830381865afa158015610590573d5f803e3d5ffd5b505050506040513d601f19601f820116820180604052508101906105b49190610f4d565b10156105f5576040517f08c379a00000000000000000000000000000000000000000000000000000000081526004016105ec90610fc2565b60405180910390fd5b5f60015f3373ffffffffffffffffffffffffffffffffffffffff1673ffffffffffffffffffffffffffffffffffffffff1681526020019081526020015f205f8681526020019081526020015f205490505f8061065183876109f7565b91509150811561072b578060015f3373ffffffffffffffffffffffffffffffffffffffff1673ffffffffffffffffffffffffffffffffffffffff1681526020019081526020015f205f8981526020019081526020015f20819055508373ffffffffffffffffffffffffffffffffffffffff166323b872dd3330896040518463ffffffff1660e01b81526004016106e993929190610fe0565b6020604051808303815f875af1158015610705573d5f803e3d5ffd5b505050506040513d601f19601f820116820180604052508101906107299190610f0e565b505b50505050505050565b6001602052815f5260405f20602052805f5260405f205f91509150505481565b6003602052805f5260405f205f91509050805f015490806001015f9054906101000a900473ffffffffffffffffffffffffffffffffffffffff16905082565b61079b610a23565b6107a45f610aaa565b565b5f805f9054906101000a900473ffffffffffffffffffffffffffffffffffffffff16905090565b600281815481106107dc575f80fd5b905f5260205f20015f915090505481565b6107f5610a23565b8173ffffffffffffffffffffffffffffffffffffffff1660035f8381526020019081526020015f206001015f9054906101000a900473ffffffffffffffffffffffffffffffffffffffff1673ffffffffffffffffffffffffffffffffffffffff1603610896576040517f08c379a000000000000000000000000000000000000000000000000000000000815260040161088d9061105f565b60405180910390fd5b60405180604001604052808281526020018373ffffffffffffffffffffffffffffffffffffffff1681525060035f8381526020019081526020015f205f820151815f01556020820151816001015f6101000a81548173ffffffffffffffffffffffffffffffffffffffff021916908373ffffffffffffffffffffffffffffffffffffffff160217905550905050600281908060018154018082558091505060019003905f5260205f20015f90919091909150555050565b610955610a23565b5f73ffffffffffffffffffffffffffffffffffffffff168173ffffffffffffffffffffffffffffffffffffffff16036109c5575f6040517f1e4fbdf70000000000000000000000000000000000000000000000000000000081526004016109bc9190610d4a565b60405180910390fd5b6109ce81610aaa565b50565b5f80838311156109e6575f80915091506109f0565b6001838503915091505b9250929050565b5f805f838501905084811015610a13575f809250925050610a1c565b60018192509250505b9250929050565b610a2b610b6b565b73ffffffffffffffffffffffffffffffffffffffff16610a496107a6565b73ffffffffffffffffffffffffffffffffffffffff1614610aa857610a6c610b6b565b6040517f118cdaa7000000000000000000000000000000000000000000000000000000008152600401610a9f9190610d4a565b60405180910390fd5b565b5f805f9054906101000a900473ffffffffffffffffffffffffffffffffffffffff169050815f806101000a81548173ffffffffffffffffffffffffffffffffffffffff021916908373ffffffffffffffffffffffffffffffffffffffff1602179055508173ffffffffffffffffffffffffffffffffffffffff168173ffffffffffffffffffffffffffffffffffffffff167f8be0079c531659141344cd1fd0a4f28419497f9722a3daafe3b4186f6b6457e060405160405180910390a35050565b5f33905090565b5f80fd5b5f819050919050565b610b8881610b76565b8114610b92575f80fd5b50565b5f81359050610ba381610b7f565b92915050565b5f819050919050565b610bbb81610ba9565b8114610bc5575f80fd5b50565b5f81359050610bd681610bb2565b92915050565b5f8060408385031215610bf257610bf1610b72565b5b5f610bff85828601610b95565b9250506020610c1085828601610bc8565b9150509250929050565b5f73ffffffffffffffffffffffffffffffffffffffff82169050919050565b5f610c4382610c1a565b9050919050565b610c5381610c39565b8114610c5d575f80fd5b50565b5f81359050610c6e81610c4a565b92915050565b5f8060408385031215610c8a57610c89610b72565b5b5f610c9785828601610c60565b9250506020610ca885828601610b95565b9150509250929050565b610cbb81610ba9565b82525050565b5f602082019050610cd45f830184610cb2565b92915050565b5f60208284031215610cef57610cee610b72565b5b5f610cfc84828501610b95565b91505092915050565b610d0e81610b76565b82525050565b610d1d81610c39565b82525050565b5f604082019050610d365f830185610d05565b610d436020830184610d14565b9392505050565b5f602082019050610d5d5f830184610d14565b92915050565b5f60208284031215610d7857610d77610b72565b5b5f610d8584828501610bc8565b91505092915050565b5f602082019050610da15f830184610d05565b92915050565b5f60208284031215610dbc57610dbb610b72565b5b5f610dc984828501610c60565b91505092915050565b5f82825260208201905092915050565b7f546f6b656e20646f6573206e6f742065786973740000000000000000000000005f82015250565b5f610e16601483610dd2565b9150610e2182610de2565b602082019050919050565b5f6020820190508181035f830152610e4381610e0a565b9050919050565b7f42616c616e6365206e6f742073756666696369656e74000000000000000000005f82015250565b5f610e7e601683610dd2565b9150610e8982610e4a565b602082019050919050565b5f6020820190508181035f830152610eab81610e72565b9050919050565b5f604082019050610ec55f830185610d14565b610ed26020830184610cb2565b9392505050565b5f8115159050919050565b610eed81610ed9565b8114610ef7575f80fd5b50565b5f81519050610f0881610ee4565b92915050565b5f60208284031215610f2357610f22610b72565b5b5f610f3084828501610efa565b91505092915050565b5f81519050610f4781610bb2565b92915050565b5f60208284031215610f6257610f61610b72565b5b5f610f6f84828501610f39565b91505092915050565b7f6e6f20656e6f75676820746f6b656e00000000000000000000000000000000005f82015250565b5f610fac600f83610dd2565b9150610fb782610f78565b602082019050919050565b5f6020820190508181035f830152610fd981610fa0565b9050919050565b5f606082019050610ff35f830186610d14565b6110006020830185610d14565b61100d6040830184610cb2565b949350505050565b7f546f6b656e20616c7265616479206578697374730000000000000000000000005f82015250565b5f611049601483610dd2565b915061105482611015565b602082019050919050565b5f6020820190508181035f8301526110768161103d565b905091905056fea2646970667358221220d6ff61787dfdc1fc8530f9bf305e2188da2cc597c718aa4fa5c6ee2bcdd7e2a664736f6c63430008150033",
  "immutableReferences": {},
  "source": "pragma solidity ^0.8.0;\r\n\r\n// import the IERC2O interface\r\nimport \"../node_modules/@openzeppelin/contracts/token/ERC20/IERC20.sol\";\r\n//import safeMath\r\nimport \"../node_modules/@openzeppelin/contracts/utils/math/Math.sol\";\r\n//import Owernable.sol\r\nimport \"../node_modules/@openzeppelin/contracts/access/Ownable.sol\";\r\n\r\ncontract Wallet is Ownable(msg.sender) {\r\n    // define token struct with token name and address\r\n    struct Token {\r\n        bytes32 ticker;\r\n        address tokenAddress;\r\n    }\r\n    /*\r\n    keep balances of user. \r\n    using double mapping to keep track of differnt assets\r\n    */\r\n    mapping(address => mapping(bytes32 => uint256)) public balances;\r\n\r\n    // define a token list to store all supported tokens.\r\n    bytes32[] public tokenList;\r\n\r\n    // define a token mapping to fetch token\r\n    mapping(bytes32 => Token) public tokenMapping;\r\n\r\n    // event is emitted each time a  withdraw happens\r\n    event withdrawal(\r\n        address indexed _to,\r\n        bytes32 _ticker,\r\n        uint256 indexed _amount\r\n    );\r\n\r\n    modifier tokenExist(bytes32 _ticker) {\r\n        //check if token exist\r\n        require(\r\n            tokenMapping[_ticker].tokenAddress != address(0),\r\n            \"Token does not exist\"\r\n        );\r\n        _;\r\n    }\r\n\r\n    modifier hasEnoughBalance(uint256 _amount, bytes32 _ticker) {\r\n        //check if the user have enough balance to witdraw\r\n        require(\r\n            balances[msg.sender][_ticker] >= _amount,\r\n            \"Balance not sufficient\"\r\n        );\r\n        _;\r\n    }\r\n\r\n    function addToken(\r\n        address _tokenadress,\r\n        bytes32 _ticker\r\n    ) external onlyOwner {\r\n        require(\r\n            tokenMapping[_ticker].tokenAddress != _tokenadress,\r\n            \"Token already exists\"\r\n        );\r\n        //define the new token if non existent\r\n        tokenMapping[_ticker] = Token(_ticker, _tokenadress);\r\n        tokenList.push(_ticker);\r\n    }\r\n\r\n    function deposit(\r\n        bytes32 _ticker,\r\n        uint256 _amount\r\n    ) external tokenExist(_ticker) {\r\n        IERC20 MTK = IERC20(tokenMapping[_ticker].tokenAddress);\r\n        require(MTK.balanceOf(msg.sender) >= _amount, \"no enough token\");\r\n        uint256 _currentbalance = balances[msg.sender][_ticker];\r\n        (bool success, uint newBalance) = Math.tryAdd(_currentbalance, _amount);\r\n        if (success) {\r\n            balances[msg.sender][_ticker] = newBalance;\r\n            MTK.transferFrom(msg.sender, address(this), _amount);\r\n        }\r\n    }\r\n\r\n    /**\r\n     * withdraw _amount from this wallet to msg.sender balances into ERC20 Token contract\r\n     * requirements\r\n     * balance of msg.sender must be greater than or equal to _amount\r\n     * make call of transfer function in ERC20 token contract to transfer from this wallet address to msg.sender address\r\n     */\r\n\r\n    function withdraw(\r\n        bytes32 _ticker,\r\n        uint256 _amount\r\n    ) external tokenExist(_ticker) hasEnoughBalance(_amount, _ticker) {\r\n        uint256 _actualBalance = balances[msg.sender][_ticker];\r\n        // using Math library to avoid overflow\r\n        (bool sucess, uint256 newBalance) = Math.trySub(\r\n            _actualBalance,\r\n            _amount\r\n        );\r\n\r\n        // if no overflow adjust balances\r\n        if (sucess) {\r\n            balances[msg.sender][_ticker] = newBalance;\r\n            IERC20(tokenMapping[_ticker].tokenAddress).transfer(\r\n                msg.sender,\r\n                _amount\r\n            );\r\n        }\r\n    }\r\n}\r\n",
  "sourcePath": "D:\\Solidity\\MyDex\\contracts\\Wallet.sol",
  "compiler": {
    "name": "solc",
    "version": "0.8.21+commit.d9974bed.Emscripten.clang"
  },
  "schemaVersion": "3.4.16",
  "updatedAt": "2024-11-11T16:39:04.276Z",
  "networkType": "ethereum",
  "devdoc": {
    "errors": {
      "OwnableInvalidOwner(address)": [
        {
          "details": "The owner is not a valid owner account. (eg. `address(0)`)"
        }
      ],
      "OwnableUnauthorizedAccount(address)": [
        {
          "details": "The caller account is not authorized to perform an operation."
        }
      ]
    },
    "kind": "dev",
    "methods": {
      "owner()": {
        "details": "Returns the address of the current owner."
      },
      "renounceOwnership()": {
        "details": "Leaves the contract without owner. It will not be possible to call `onlyOwner` functions. Can only be called by the current owner. NOTE: Renouncing ownership will leave the contract without an owner, thereby disabling any functionality that is only available to the owner."
      },
      "transferOwnership(address)": {
        "details": "Transfers ownership of the contract to a new account (`newOwner`). Can only be called by the current owner."
      }
    },
    "version": 1
  },
  "userdoc": {
    "kind": "user",
    "methods": {
      "withdraw(bytes32,uint256)": {
        "notice": "withdraw _amount from this wallet to msg.sender balances into ERC20 Token contract requirements balance of msg.sender must be greater than or equal to _amount make call of transfer function in ERC20 token contract to transfer from this wallet address to msg.sender address"
      }
    },
    "version": 1
  }
}